:030000000207AF45
:0C07AF00787FE4F6D8FD7581620207F641
:100A8A000127000A28000000000000000000000101
:020A9A00320028
:0B0AF8007FF57E00120B037FF57E00EF
:0B0B0300EF4E6007EF1F70F81E80F53A
:010B0E0022C4
:100B0F00AD07AC06ED1DAE0470011C4E6008120A55
:060B1F00F8120AF880EE56
:010B250022AD
:100B3D0053877F759850759CFD438E04438E0143FA
:030B4D008E1022E5
:100B5000EF4488F5BCE5BC30E4FB53BCEFAFBD22ED
:100B6000E4F533F534C200F526F525F524F5232206
:100B7000758901758A8A758CD0D28CD2A9D2AF22A0
:03000B00020A4C9A
:070A4C00C0E0C0D075D0002E
:100A5300758A8A758CD0E4FFFE0FBF00010EEF6428
:100A6300DE4E70F5AF27120B5074282532F8A60717
:100A73000532E532D394094009D200753200C28CA5
:020A8300C2AF00
:050A8500D0D0D0E032EA
:0700030075920375910322C1
:0F0B8000759D01E4F5BD75BC807F0AFE020B0F69
:080937008B0A8A0B890C8D0D5F
:10093F00E4FFF50EE50D14FDEFC39D5047EF04FEE8
:10094F00EEC3950D503BAB0AAA0BA90C8E82758393
:10095F00001203F1FD8F827583001203F1FCC39D1A
:10096F00501C8C0E8E827583001203F18F8275835B
:10097F000012041E8E82758300E50E12041E0E8077
:10098F00BF0F80B0E50DC313AB0AAA0BA90CF582FC
:07099F007583001203F1FF54
:0109A600222E
:10061D00E4F508F509C2AF120B6012083B12000396
:10062D00120B3D120B807F0A7E00120B0F120B7006
:10063D00E4F532F508F509C2002000030206FB7B44
:10064D00007A0079287D0A1209377508008F09ACE8
:10065D0008AD09E412031EE4FBFA79807843120217
:10066D000F7B007A40799C78451201068F268E25E6
:10067D008D248C237FC57E207D307C3EAB26AA2524
:10068D00A924A8231201067BCD7ACC79C778C21292
:10069D0000158F268E258D248C23E4FFFEFDFCABEB
:1006AD0026AA25A924A8231202AC5009E4F526F5A3
:1006BD0025F524F523E4FFFE7D3E7C44AB26AA25DB
:1006CD00A924A8231202AC600D400BE4F526F525F4
:1006DD0075243E752344AF26AE25AD24AC231203FD
:1006ED00578E088F097F647E00120B0FC20012080F
:0B06FD00C0AF09AE081205030206465C
:100B2600D3EF9400EE9400400DE4FD0DBD1BFCEFE9
:060B36001F70ED1E80EAB5
:010B3C002296
:0C0B8F00150A150A150A150A150A150AA0
:010B9B002237
:100A0C00E4FF753902209007AE390539EE70F61205
:100A1C000B8F120B8FE4F53D309003753D0175394A
:100A2C0002309007AE390539EE70F6E53964016095
:0F0A3C000EE54225E0F542E53D42420FBF08C3FB
:010A4B002288
:1008C000C206C2907FB47E00120B26D290120B8F0C
:1008D000120B8F120B8F120B8FD2902090587539FC
:1008E00002209007AF390539EF70F6753902309064
:1008F00007AF390539EF70F6120A0C854240120A2B
:100900000C854241120A0C854237120A0C85423886
:10091000120A0C85423CD290E53725382540254106
:10092000F53DB53C1185403E85413F8537358538DD
:0709300036853C3AD2062295
:1007080041542B43574D4F44453D310D0A00415448
:100718002B5253540D0A0041542B4349504D555800
:100728003D300D0A0041542B43574A41503D224564
:10073800535038323636222C22313233343536375C
:100748003839220D0A0041542B43494653520D0AA9
:100758000041542B43495053544152543D22544371
:1007680050222C223139322E3136382E342E312275
:100778002C353030300D0A0041542B4349504D4F31
:1007880044453D310D0A0041542B43495053454ED1
:10079800440D0A005235005235504D410030313277
:0707A80033343536373839D0
:100A9C00011D00C103C10420204300000000000020
:100AAC00000000000000000000000000000000003A
:0A0ABC000000000000000000000030
:1009A70012044074A52DF58274073CF583E493F592
:0909B700997F017E007D007C00A7
:0809C0008F188E178D168C159F
:1009C800E4F51CF51BF51AF519E47F64FEFDFCAB94
:1009D80018AA17A916A815120495AB1CAA1BA91AC0
:1009E800A819C31204F2501BE4FAF9F8E51C240113
:1009F800F51CEA351BF51BE9351AF51AE83519F522
:030A08001980C68C
:010A0B0022C8
:060AC7007BFF7A07798F26
:100ACD008B128A138914AB12AA13A9141203D860BE
:100ADD0019547FF5993099FDC29974012514F514B7
:0B0AED00E43513F5131209B880DC2279
:10083B007FE87E031209BC7BFF7A077908120ACD89
:10084B007FE87E031209BC7BFF7A077916120ACD6B
:10085B007FE87E031209BC7BFF7A07791F120ACD52
:10086B007FE87E031209BC7BFF7A07792D120ACD34
:10087B007FB87E0B1209BC7BFF7A07794E120ACD2B
:10088B007FF47E011209BC7BFF7A077959120ACDDE
:10089B007FD07E071209BC7BFF7A077980120ACDC5
:1008AB007FE87E031209BC120AC77FE87E037D0036
:0508BB007C000209C0F1
:040503008E0A8F0BC2
:10050700C28CE53A70030205A8E53575F064848569
:10051700F035E53575F00A84F50CE53575F00A8494
:1005270085F00DE53675F00A8485F00EE53E75F029
:10053700648485F03EE53E75F00A84F50FE53E7567
:10054700F00A8485F010E53F75F00A8485F0117F85
:10055700051209BA120AC77BFF7A07799C120ACDDE
:10056700E50C9007A51209B5E50D9007A51209B589
:1005770075992E1209B8E50E9007A51209B5E50F72
:100587009007A51209B5E5109007A51209B5759949
:100597002E1209B8E5119007A593F5997F14120952
:1005A700BAE50B450A606CAE0AAF0B7C037DE81217
:1005B70004408C0A8D0B120AC77BFF7A07799F12BA
:1005C7000ACD9007A51209B475992E1209B8AE0A7B
:1005D700AF0B7C007D6412044074A52FF58274076D
:1005E7003E1209B2AE0AAF0B7C007D0A1204407CB2
:1005F700007D0A1209A7AE0AAF0B7C007D641204C6
:10060700407E007F0ACFCDCFCECCCE1209A7E4F52E
:050617000AF50BD28C76
:01061C0022BB
:10000E000203C3E86480F8E933E83360110460F05A
:10001E00ED33EC337009E8FCE9FDEAFEEBFF220458
:10002E0060DED3EB9FEA9EE99DE8C2E78CF0C2F753
:10003E0095F0400CE8CCF8E9CDF9EACEFAEBCFFB1F
:10004E0012038E85D0F05804700320D5B3E80470E7
:10005E00075002B2D50203CD92D5EC0460F7E4CC82
:10006E00C0E0C398F8603B94186008400DD0E0FBE8
:10007E000203A5E4FBFAC9FC8028E830E406E4C9D3
:10008E00FBE4CAFCE830E305E4C9CACBFCE854073C
:10009E006010F8C3E913F9EA13FAEB13FBEC13FC47
:1000AE00D8F130F52FC3E49CFCEF9BFFEE9AFEEDEA
:1000BE0099FDD0E0FBEF4E4D4C701222DB03020394
:1000CE00CAEC2CFCEF33FFEE33FEED33FDED30E7E3
:1000DE00EB0203A5EF2BFFEE3AFEED39FDD0E0FB70
:1000EE0050130BBB00030203CDED13FDEE13FEEF19
:0800FE0013FFEC13FC0203A543
:10010600EC4D6011E8497017ED33EC3304600DE4F3
:10011600FCFFFEFD22E933E8330470F80203C31244
:10012600038E58046009E4CC248150062850090245
:1001360003CD2840030203CAC0E0EB4A7044B980ED
:1001460006D0E0FB0203B9EF4E701CBD8008EBFF42
:10015600EAFEE9FD80EBE98DF0A4FEE5F00201EF91
:10016600E9CDF9EAFEEBFFEF89F0A4FCE5F0CE89D4
:10017600F0A42EFFE435F0CD89F0A42DFEE435F091
:100186008067EF4E7005BD80D780C3EF8BF0A4ACBF
:10019600F0EE8BF0A42CFCE435F0F8EF8AF0A42CFA
:1001A600E5F038FCE433CB8DF0A42CFCE5F03BF80D
:1001B600EE8AF0A42CFCE5F038F8E433CF89F0A4FD
:1001C6002CFCE5F038CF3400CE89F0A42FFFE5F003
:1001D6003EFEE433C98DF0A42EFEE5F039CD8AF05B
:1001E600A42FFFE5F03EFEE43DFD33D0E0FB5007D3
:1001F6000BBB000F0203CDEC2CFCEF33FFEE33FEFE
:06020600ED33FD0203A52B
:10020C000203CDEC5D046005E8590470030203C3DE
:10021C0012038E580460F6EC4860F2EC7004FDFE9C
:10022C00FF22C860DB2481C85009C39860025006C5
:10023C000203CA9850CAF582E9294B4A7005AB8271
:10024C000203B975F0007C1A7880C3EF9BEE9AED2F
:10025C0099400DC3EF9BFFEE9AFEED99FDE842F03D
:10026C00DC23ACF0D0E0FFD0E0FED0E0FDAB822090
:10027C00E7101BEB60BAEC2CFCEF33FFEE33FEED1A
:10028C0033FD0203A5E803F830E705C0F075F00074
:10029C00EF2FFFEE33FEED33FD40B830E7C280AAFE
:1002AC0074F8CC6480CCC86480C8F582046043C305
:1002BC00EB9FF5F0EA9E42F0E99D42F0E89C45F098
:1002CC0060305018E5825FFFE582F42B5582FB50BD
:1002DC00210ABA001D09B90019088016E5825BFBDA
:1002EC00E582F42F5582FF50090EBE00050DBD00AE
:1002FC00010CC3EB9FF5F0EA9E42F0E99D42F0E859
:0D030C009C45F06007CC4820E701B3EC22CF
:1003190075F020800E75F010800575F0087D007E5F
:10032900007F003392D530D5031204E4EC3340103A
:10033900EF33FFEE33FEED33FDEC33FCD5F0ED2268
:0E034900E5F0247EA2D513CC92E7CDCEFF22A4
:10035700EDD2E7CD33EC3392D524814006E4FFFE9E
:10036700FDFC22FCE4CFCECDCC24E0501174FF80FD
:10037700EDC3CC13CCCD13CDCE13CECF13CF04709A
:07038700F030D5DE0204E4B2
:10038E00E9D2E7C933E833F892D5EDD2E7CD33ECB5
:07039E0033FC5002B2D5222E
:1003A500EC30E7100FBF000C0EBE00080DBD0004B9
:1003B5000BEB6014A2D5EB13FCED92E7FD2274FF65
:1003C500FCFDFEFF22E480F8A2D574FF13FC7D80BE
:0303D500E480EFD2
:1007BB0002061DE493A3F8E493A34003F68001F231
:1007CB0008DFF48029E493A3F85407240CC8C3333F
:1007DB00C4540F4420C8834004F456800146F6DF0E
:1007EB00E4800B0102040810204080900A8AE47E0A
:1007FB00019360BCA3FF543F30E509541FFEE49303
:10080B00A360010ECF54C025E060A840B8E493A3C9
:10081B00FAE493A3F8E493A3C8C582C8CAC583CAF4
:10082B00F0A3C8C582C8CAC583CADFE9DEE780BEAC
:010AC600002F
:1003D800BB010689828A83E0225002E722BBFE0223
:0903E800E32289828A83E4932256
:1003F100BB010CE58229F582E5833AF583E02250C1
:1004010006E92582F8E622BBFE06E92582F8E2220A
:0D041100E58229F582E5833AF583E4932224
:10041E00F8BB010DE58229F582E5833AF583E8F014
:10042E00225006E92582C8F622BBFE05E92582C8C0
:02043E00F222A8
:10044000BC000BBE0029EF8DF084FFADF022E4CCA0
:10045000F875F008EF2FFFEE33FEEC33FCEE9DEC69
:10046000984005FCEE9DFE0FD5F0E9E4CEFD22EDAF
:10047000F8F5F0EE8420D21CFEADF075F008EF2FF9
:10048000FFED33FD4007985006D5F0F222C398FDEA
:050490000FD5F0EA2287
:10049500E88FF0A4CC8BF0A42CFCE98EF0A42CFC06
:1004A5008AF0EDA42CFCEA8EF0A4CDA8F08BF0A484
:1004B5002DCC3825F0FDE98FF0A42CCD35F0FCEBE3
:1004C5008EF0A4FEA9F0EB8FF0A4CFC5F02ECD39A8
:0F04D500FEE43CFCEAA42DCE35F0FDE43CFC2215
:0E04E400C3E49FFFE49EFEE49DFDE49CFC2229
:1004F200EB9FF5F0EA9E42F0E99D42F0E89C45F060
:0105020022D6
:00000001FF
