:0300000002036494
:0C036400787FE4F6D8FD75817A0203ABC7
:10019300CFB5CDB3B3F5CABCBBAF2E2E2E004154A1
:1001A3002B5253540D0A00CFB5CDB3B3F5CABCBB24
:1001B300AF2E2E2E2E0041542B4349504D55583D02
:1001C300300D0A00CFB5CDB3B3F5CABCBBAFCAA7D8
:1001D300B0DC0041542B43574A41503D2245535014
:1001E30038323636222C22313233343536373839E9
:1001F300220D0A0041542B43495053544152543D5C
:1002030022544350222C223139322E3136382E34A7
:100213002E31222C353030300D0A00D3A6B8C3B3AB
:10022300C9B9A6C1CB7E7E7E7E7E7E00BDD3CAD5F4
:10023300CABEDDD6D02E2E2E2E2020002020202038
:1002430020202020202020202020202000202020CB
:10025300202020B2D9B3A120202020202000CEC20C
:10026300B6C83A00CAAAB6C83A00504D322E353A3B
:1002730000202020202020B7BFBCE4C4DA202020A7
:100283002000D1CCCEED3A0041542B434950534585
:100293004E443D31300D0A00523300523359574317
:0D02A30047510030313233343536373839A9
:08084400013000C100012F008A
:0E0648009002A693F5997F017E007D007C0054
:080656008F1A8E198D188C1704
:10065E00E4F51EF51DF51CF51BE47F32FEFDFCAB2B
:10066E001AAA19A918A817120491AB1EAA1DA91C23
:10067E00A81BC31204E0501BE4FAF9F8E51E24018E
:10068E00F51EEA351DF51DE9351CF51CE8351BF583
:03069E001B80C6F8
:0106A1002236
:06071E007BFF7A02798BDB
:100724008B148A158916AB14AA15A91612047860BD
:1007340019547FF5993099FDC29974012516F5165F
:0B074400E43515F51512064E80DC228E
:1002B000C2047518801206E27BFF7A017993120757
:1002C0007B7FF47E011206527BFF7A0179A112072F
:1002D00024C2047518801206E27BFF7A0179AA1203
:1002E000077B7FE87E031206527BFF7A0179B91201
:1002F0000724C2047518801206E27BFF7A0179C7D1
:1003000012077B7FF47E011206527BFF7A0179D6B9
:100310001207247F887E131206527BFF7A0179F739
:10032000120724C2047518801206E27BFF7A027954
:100330001E12077B7FE87E03120652C204751880E6
:100340001206E27BFF7A02792F12077B7FF47E018F
:10035000120652C2047518801206E27BFF7A0279F7
:040360003F02077BD6
:1007A20012074F759850758921758DFD758BFD75F2
:1007B2008C3C758AB0D28ED2A91202B0D2AFD2AC22
:0607C200D28CE4F52622B2
:060026008F0E8D0F8B1000
:10002C002000030200E8E531640160030200E8C22D
:10003C00047518801206E27BFF7A02795012077B56
:10004C00C2047518901206E27BFF7A0279611207DE
:10005C007BD2047835E6F5181206E2D2047836E63F
:10006C00F5181206E2D2047837E6F5181206E2D239
:10007C00047838E6F5181206E2C2047518881206E0
:10008C00E27BFF7A02796712077BD2047839E6F5B6
:10009C00181206E2D204783AE6F5181206E2D204F7
:1000AC00783BE6F5181206E2D204783CE6F5181215
:1000BC0006E2C2047518981206E27BFF7A02796D8B
:1000CC0012077BE4F514D20474532514F8E6F518E2
:1000DC001206E20514E514C3940540EAE531640206
:1000EC006003020192C2047518801206E27BFF7A4B
:1000FC0002797412077BC2047518901206E27BFF1A
:10010C007A02796112077BD204E50E2430F51812BD
:10011C0006E2D204E50F2430F5181206E2D204757B
:10012C00182E1206E2D204E5102430F5181206E25D
:10013C00C2047518881206E27BFF7A0279671207EF
:10014C007BD204E5112430F5181206E2D204E51234
:10015C002430F5181206E2D20475182E1206E2D2DB
:10016C0004E5132430F5181206E2C204751898122F
:10017C0006E27BFF7A02798512077BD204E53224F2
:06018C0030F5181206E236
:01019200224A
:1005D900E526606AE52175F0648485F021E52175D9
:1005E900F00A84F508E52175F00A8485F009E52209
:1005F90075F00A8485F00AE52A75F0648485F02A85
:10060900E52A75F00A84F50BE52A75F00A8485F068
:100619000CE52B75F00A8485F00D850B11850C12FC
:10062900850D13AB0AAD09AF08120026850B11859C
:0E0639000C12850D13AB0AAD09AF081205684F
:010647002290
:100568008F0E8D0F8B10C2ACC28C12071E7BFF7AC8
:1005780002799B120724E50E120648E50F12064879
:1005880075992E12064EE510120648E51112064816
:10059800E51212064875992E12064EE5139002A62A
:1005A80093F5997F1412065012071E7BFF7A027981
:1005B8009E120724E5321206489002A6E412064B62
:1005C8009002A6E493F5997F14120650D28CD2AC0F
:0105D8002200
:03000B000207C821
:1007C800C0E0C0D0758C3C758AB0052FE52FB428E1
:1007D8000C0531E531D394024003753101D0D0D0F6
:0207E800E032FD
:030023000203F0E5
:0F03F000C0E0C0D075D000C000C005C006C00777
:1003FF00E4FFC28C309863C298745B2530F8A699DD
:10040F00785BE6B4520405308003753000E530C3E5
:10041F00940C4046785CE66432703C08E664507099
:10042F002008E6644D701A08E6B441157E05745B2A
:10043F002EF8E6FD74532FF8A6050F0EBE0AEF80B7
:10044F00167E00745B2EF8E6FF74332EF8A607D2E3
:0C045F00000EBE0AEE8000753000D28C4A
:0D046B00D007D006D005D000D0D0D0E032B0
:100821001207A21204F11205D93091057532018027
:06083100F2E4F53280ED57
:10077B008B158A168917AB15AA16A917120478FFC1
:10078B006014D204F5181206E274012517F517E46C
:07079B003516F51680E0227F
:10074F007F0A7E001207EAC2A37F017E001207EA2A
:10075F00D2A3D2A0C2047518301206E2C2047518D3
:0C076F000C1206E2C2047518010206E23A
:1006E2002004057519F880037519FAE51854F0F518
:1006F2001AE518C454F0F51BAF1912000E7F057EDF
:10070200001207EAAF1A12000E7F017E001207EAFA
:0C071200AF1B12000E7F017E000207EA00
:10000E00E4FEEF3392A1D2A2C2A2EF25E0FF0EBE14
:02001E0008F0E8
:0100200022BD
:1007EA00E4FDFCC3ED9FEC9E5015E4FBFA0BBB0045
:0F07FA00010AEB640A4A70F50DBD00010C80E4A2
:0108090022CC
:10080A00D3EF9400EE9400400DE4FD0DBD1BFCEF08
:06081A001F70ED1E80EAD4
:0108200022B5
:0C08370015081508150815081508150807
:010843002292
:1006A200E4FF752502209107AE250525EE70F612AE
:1006B2000837120837E4F5293091037529017525A9
:1006C20002309107AE250525EE70F6E5256401603E
:0F06D2000EE52E25E0F52EE529422E0FBF08C3B9
:0106E10022F6
:1004F100C203C2917FB47E0012080AD2911208375A
:10050100120837120837120837D2912091587525F1
:1005110002209107AF250525EF70F6752502309170
:1005210007AF250525EF70F61206A2852E2C1206BF
:10053100A2852E2D1206A2852E231206A2852E2417
:100541001206A2852E28D291E5232524252C252DBE
:10055100F529B52811852C2A852D2B852321852464
:0705610022852826D20322A7
:10037000020821E493A3F8E493A34003F68001F27A
:1003800008DFF48029E493A3F85407240CC8C3338E
:10039000C4540F4420C8834004F456800146F6DF5D
:1003A000E4800B0102040810204080900844E47EA1
:1003B000019360BCA3FF543F30E509541FFEE49352
:1003C000A360010ECF54C025E060A840B8E493A319
:1003D000FAE493A3F8E493A3C8C582C8CAC583CA44
:1003E000F0A3C8C582C8CAC583CADFE9DEE780BEFC
:01084C0000AB
:10047800BB010689828A83E0225002E722BBFE0282
:09048800E32289828A83E49322B5
:10049100E88FF0A4CC8BF0A42CFCE98EF0A42CFC0A
:1004A1008AF0EDA42CFCEA8EF0A4CDA8F08BF0A488
:1004B1002DCC3825F0FDE98FF0A42CCD35F0FCEBE7
:1004C1008EF0A4FEA9F0EB8FF0A4CFC5F02ECD39AC
:0F04D100FEE43CFCEAA42DCE35F0FDE43CFC2219
:1004E000EB9FF5F0EA9E42F0E99D42F0E89C45F072
:0104F00022E9
:00000001FF
