:030000000207E113
:0C07E100787FE4F6D8FD75816B020828D3
:1009CC0025640D0A00C0F9A4B0999282F880908831
:0509DC0083C6A1868E18
:1008FD000140000227000002470258C10AC10B0443
:10090D004D0000000004430000000002220200021E
:10091D005102000224020002410064C18CC1090190
:02092D002600A2
:0B0A10001209E1AF401209820209F454
:10093000120A10AD4CAC4B7F531209B6300B1A752E
:1009400027007528FFAD4AAC497F421209B6AD4871
:10095000AC477F511209B6C20B7F8A7E0012096232
:0209600080D144
:1009B6008C538D54120A047BFF7A0979CC855358DF
:0609C60085545902007087
:1009E10053877F759850759CFD438E04438E014358
:0309F1008E102243
:0C0A0400C2998F993099FDC299AF9922D8
:10096200E4FDFCC3ED9FEC9E5015E4FBFA0BBB00CB
:0F097200010AEB64644A70F50DBD00010C80E4CE
:010981002253
:10086D0043A0F0E52614601414601E2402702DE5DB
:10087D00299009D193F58053A07F8023E52A900913
:10088D00D193F58053A0BF8016E52B7002800DE546
:10089D002B9009D193F58053A0DF800343A0F00581
:0C08AD0026E526D394024003E4F5262241
:1009F400438901758ACD758CF8D28CD2A9D2AF22E5
:100982007401A807088002C333D8FCF59DE4F5BDC5
:0B099200F5BE43A204EF4488F5BC2230
:02099D00AD07A4
:10099F0075BC00AFBDEF7F00FEACBEEC2FFFE43E99
:0609AF00FEED448842BC8D
:0109B500221F
:03000B0002036A83
:10036A00C0E0C0F0C083C082C0D075D000C000C059
:0D037A0001C002C003C004C005C006C007DA
:10038700E4FBFAC2AF758ACD758CF8AF4012099DB0
:100397008E4B8F4CE5502402F550E4354FF54FE472
:1003A700354EF54EE4354DF54DAE45AF46AC4FAD48
:1003B70050C3ED9FF56AEC9EF56912086DC3E54CD5
:1003C7009525E54B9524502BAE47AF487C007D051E
:1003D7001205FA7C007D031205E8D3E56A9FE569FB
:1003E7009E4010E54C9552E54B95515006854B5173
:1003F700854C52D3E54C9525E54B95244011D3E523
:100407004C9523E54B95224006854B22854C23D3FB
:10041700E56A94FAE569648094805003020558D32D
:10042700E54C9525E54B95245003020558300A0302
:10043700020558AE47AF487C007D051205FA7C00DF
:100447007D031205E8D3E56A9FE5699E500302051F
:1004570058D20AC2A0AE45AF46AC4FAD50ED9FF59E
:1004670048EC9EF547AF50AE4FAD4EAC4D8F468E24
:10047700458D448C43300918C209756B00E56B251F
:10048700E0242CF8A64708A648056BE56BB40AEDEF
:10049700300C09C20CD209D2AF0205CD756B00E54D
:1004A7006B25E0242EF8E6FE08E6FFE56B25E02441
:1004B7002CF8A60608A607E56B25E0242CF8E6FE2F
:1004C70008E62BFBEE3AFA056BE56BB409D18547D5
:1004D7003E85483FE53F2BFBE53E3A7C007D0AAF72
:1004E70003FE1205FAAA06AB07E4F9F87F607EEA75
:1004F700FDFC1208B98E498F4AD3E54A94C8E549ED
:1005070094004006754900754AC8C3E54A941EE53C
:100517004994005006754900754A1EAE49AF4A7C9A
:10052700007D0A1205FA8D29AE49AF4A7C007D6429
:100537001205FA7E007F0ACFCDCFCECCCE1205FAB8
:100547008F2AAE49AF4A7C007D641205FA8F2BD201
:100557000BC3E54C9525E54B95245035300A32D22F
:10056700A0C20AC3E5239552F542E5229551F5410C
:10057700AE41AF427C007D0212064FE5522FF525B2
:10058700E5513EF52485242285252385245185259B
:1005970052D3E56A94C4E56964809489402675243A
:1005A70002752500752202752300755102755200E8
:1005B700AF50AE4FAD4EAC4D8F468E458D448C43FC
:0605C700D20CC209D2AF04
:1005CD00D007D006D005D004D003D002D001D00082
:0B05DD00D0D0D082D083D0F0D0E0322C
:1007ED00020930E493A3F8E493A34003F68001F2E9
:1007FD0008DFF48029E493A3F85407240CC8C3330D
:10080D00C4540F4420C8834004F456800146F6DFDB
:10081D00E4800B01020408102040809008FDE47E66
:10082D00019360BCA3FF543F30E509541FFEE493D0
:10083D00A360010ECF54C025E060A840B8E493A397
:10084D00FAE493A3F8E493A3C8C582C8CAC583CAC2
:10085D00F0A3C8C582C8CAC583CADFE9DEE780BE7A
:01092F0000C7
:1005E800EF8DF0A4A8F0CF8CF0A428CE8DF0A42E27
:0205F800FE22E1
:1005FA00BC000BBE0029EF8DF084FFADF022E4CCE5
:10060A00F875F008EF2FFFEE33FEEC33FCEE9DECAD
:10061A00984005FCEE9DFE0FD5F0E9E4CEFD22EDF3
:10062A00F8F5F0EE8420D21CFEADF075F008EF2F3D
:10063A00FFED33FD4007985006D5F0F222C398FD2E
:05064A000FD5F0EA22CB
:10064F00C2D5EC30E709B2D5E4C39DFDE49CFCEEC6
:10065F0030E715B2D5E4C39FFFE49EFE1205FAC33F
:10066F00E49DFDE49CFC80031205FA30D507C3E43A
:06067F009FFFE49EFE2235
:1008B900C2D5E830E70FB2D5E4C39BFBE49AFAE46A
:1008C90099F9E498F8EC30E717B2D51208EF120756
:1008D90019E4C39BFBE49AFAE499F9E498F88003D4
:1008E90012071930D50DE4C39FFFE49EFEE49DFD78
:0408F900E49CFC225D
:10000E00E5642458F8E605642278553007027858DE
:10001E00E475F0011207AB0206852000EB7F2ED2AD
:10002E00008018EF540F2490D43440D4FF30040BCA
:10003E00EF24BFB41A0050032461FFE5656002157A
:10004E00650568E5687002056730070D7855E4753B
:10005E00F0011207ABEF0206CB020A047403D207BB
:10006E008003E4C207F5648B558A568957E4F5651B
:10007E00F567F568E56560077F2012004980F57524
:10008E0066FFC201C200C202C203C205C206C20896
:10009E00120017FF700D3007057F0012005AAF686F
:1000AE00AE6722B4255FC2D5C204120017FF24D05A
:1000BE00B40A00501A75F00A786530D50508B6FFF7
:1000CE000106C6A426F620D5047002D20380D924D8
:1000DE00CFB41A00EF5004C2E5D20402025AD20184
:1000EE0080C6D20080C0D20280BCD2D580BAD205E2
:1000FE0080B47F201200492002077401B5650040CC
:10010E00F112000EFF120049020082D208D20680C0
:10011E009512000EFB12000EFA12000EF94A4B70E9
:10012E0006792B7A037BFF20022EE565602A7E007E
:10013E008E8275830012069E60060EEE656670F066
:10014E00C2D5EBC0E0EAC0E0E9C0E0EE1202A1D0F9
:10015E00E0F9D0E0FAD0E0FB120685FF60AAEBC012
:10016E00E0EAC0E0E9C0E0120049D0E02401F9D095
:10017E00E03400FAD0E0FBE5660460DCD566D98099
:10018E00877BFF7A02799DD202809C79108002795A
:10019E0008C206C2088008D2D5790A8004790AC23C
:1001AE00D5E566047002F566E4FAFDFEFF12000E58
:1001BE00FC7B0820011312000EFD7B1030000A128A
:1001CE00000EFE12000EFF7B20EC3382D592D5502E
:1001DE0013C3E43000069FFFE49EFEE42001039D5E
:1001EE00FDE49CFCE4CBF8C201EC700CCFCECDCC80
:1001FE00E824F8F870F38017C3EF33FFEE33FEED0B
:10020E0033FDEC33FCEB33FB994002FB0FD8E9EBEB
:10021E00300105F8D0E0C448B201C0E00AEC4D4E02
:10022E004F78207B0070C2EAB5660040BCC0E01279
:10023E0002A3D0F0D0E0200104C4C0E0C4B201C0DB
:10024E00F0120032D0F0D5F0EB0200821207BB01A3
:10025E001F5301995800F04C00EC42019D4F01A52F
:0F026E004401A54901054301AB55018F46018F9E
:10027D0045018F47034B5000F42D00F82E011B2B29
:10028D0000FC2301192003342A00B4480000011397
:10029D003F3F3F00790AA2D5200314300509B9105C
:1002AD00020404B9080104A2D5200602500104205D
:1002BD0002689202B565005034C0E07F203003190A
:1002CD007F30A20272067205500F1202FAC202C2EC
:1002DD0006C205C2087F30800F300503E9C0E01269
:1002ED000049300503D0E0F9D0E0B565CC300517F5
:1002FD007F30B9100C1200497F583004077F788089
:10030D0003B908031200493002057F2D0200497F11
:10031D00202008F87F2B2006F322920280CF286E32
:10032D00756C6C2900D20112000E3001F8C20178F3
:10033D006530D50108F60200B42D5043495812001E
:10034D000E2403B405004001E49003469312003AD5
:0D035D00743A12003AD2037565040201994A
:10068500BB010689828A83E0225002E722BBFE0273
:09069500E32289828A83E49322A6
:10069E00BB010CE58229F582E5833AF583E0225011
:1006AE0006E92582F8E622BBFE06E92582F8E2225B
:0D06BE00E58229F582E5833AF583E4932275
:1006CB00BB010689828A83F0225002F722BBFE010E
:0206DB00F32208
:1006DD0075F008758200EF2FFFEE33FECD33CDCCD4
:1006ED0033CCC58233C5829BED9AEC99E582984057
:1006FD000CF582EE9BFEED9AFDEC99FC0FD5F0D634
:10070D00E4CEFBE4CDFAE4CCF9A88222B800C1B95D
:10071D000059BA002DEC8BF084CFCECDFCE5F0CB9B
:10072D00F97818EF2FFFEE33FEED33FDEC33FCEBD4
:10073D0033FB10D703994004EB99FB0FD8E5E4F98F
:10074D00FA227818EF2FFFEE33FEED33FDEC33FC7C
:10075D00C933C910D7059BE99A4007EC9BFCE99A70
:10076D00F90FD8E0E4C9FAE4CCFB2275F010EF2FB5
:10077D00FFEE33FEED33FDCC33CCC833C810D707B5
:10078D009BEC9AE899400AED9BFDEC9AFCE899F8F0
:0E079D000FD5F0DAE4CDFBE4CCFAE4C8F92283
:1007AB00FAE6FB0808E6F925F0F618E6CA3AF6224F
:1007BB00D083D082F8E4937012740193700DA3A3CD
:1007CB0093F8740193F5828883E4737402936860E1
:0607DB00EFA3A3A380DFE1
:00000001FF
