:030000000207EF05
:0C07EF00787FE4F6D8FD75816C020836B6
:10098B0025640D0A0050756C736573656E736F7219
:10099B00207465737400202042504D3A2020202093
:0709AB002020202020200085
:10091A000141000227000002480258C10AC10B0423
:10092A004E000000000444000000000222020002FF
:10093A005202000224020002420064C18CC1090171
:08094A00260004290000000052
:0E0AA400120A81AF411209F3120A940209539B
:10087B00120AA47BFF7A097990120A6CE4FD7F01BE
:10088B001209D67BFF7A0979A1120A6CAD4DAC4CDB
:10089B007F53120A40300B2A7527007528FFAD4B8A
:1008AB00AC4A7F42120A40AD49AC487F51120A4014
:1008BB00C20B7D097F011209D67B007A00792912C0
:0B08CB000A6C7F8A7E001209B680C113
:100A40008C548D55120AB27BFF7A09798B855459E3
:060A500085555A020070FA
:100A810053877F759850759CFD438E04438E0143B7
:030A91008E1022A2
:0C0AB200C2998F993099FDC299AF99222A
:100A9400438901758ACD758CF8D28CD2A9D2AF2244
:1009F3007401A807088002C333D8FCF59DE4F5BD54
:0B0A0300F5BE43A204EF4488F5BC22BE
:020A0E00AD0732
:100A100075BC00AFBDEF7F00FEACBEEC2FFFE43E27
:060A2000FEED448842BC1B
:010A260022AD
:03000B0002036A83
:10036A00C0E0C0F0C083C082C0D075D000C000C059
:0D037A0001C002C003C004C005C006C007DA
:10038700E4FBFAC2AF758ACD758CF8AF41120A0E3D
:100397008E4C8F4DE5512402F551E43550F550E46C
:1003A700354FF54FE4354EF54EAE46AF47AC50AD41
:1003B70051C3ED9FF56BEC9EF56AC3E54D9525E5B9
:1003C7004C9524502BAE48AF497C007D0512062181
:1003D7007C007D0312060FD3E56B9FE56A9E4010F4
:1003E700E54D9553E54C95525006854C52854D5336
:1003F700D3E54D9525E54C95244011D3E54D95233F
:10040700E54C95224006854C22854D23D3E56B9418
:10041700FAE56A648094805003020566D3E54D953A
:1004270025E54C95245003020566300A030205664C
:10043700AE48AF497C007D051206217C007D031282
:10044700060FD3E56B9FE56A9E5003020566D20A45
:10045700C2A0AE46AF47AC50AD51ED9FF549EC9EFB
:10046700F548AF51AE50AD4FAC4E8F478E468D45D8
:100477008C44300918C209756C00E56C25E0242D01
:10048700F8A64808A649056CE56CB40AED300C09D6
:10049700C20CD209D2AF0205DB756C00E56C25E012
:1004A700242FF8E6FE08E6FFE56C25E0242DF8A6E4
:1004B7000608A607E56C25E0242DF8E6FE08E62BDE
:1004C700FBEE3AFA056CE56CB409D185483F8549DE
:1004D70040E5402BFBE53F3A7C007D0AAF03FE1267
:1004E7000621AA06AB07E4F9F87F607EEAFDFC1255
:1004F70008D68E4A8F4BD3E54B94C8E54A94004003
:1005070006754A00754BC8C3E54B941EE54A94002F
:100517005006754A00754B1EAE4AAF4B7C007D0AEC
:10052700120621AF05ED2430F52BAE4AAF4B7C0008
:100537007D641206217E007F0ACFCDCFCECCCE12AE
:100547000621EF2430F52AAE4AAF4B7C007D6412BA
:100557000621EF2430F529B43003752920D20BC3C7
:10056700E54D9525E54C95245035300A32D2A0C289
:100577000AC3E5239553F543E5229552F542AE426A
:10058700AF437C007D02120676E5532FF525E55231
:100597003EF524852422852523852452852553D39A
:1005A700E56B94C4E56A64809489402675240275D6
:1005B7002500752202752300755202755300AF514D
:1005C700AE50AD4FAC4E8F478E468D458C44D20C06
:0405D700C209D2AFD4
:1005DB00D007D006D005D004D003D002D001D00074
:0B05EB00D0D0D082D083D0F0D0E0321E
:100A27007FFF7580FFC295D296D297AE071FEE6003
:080A370005E58020E7F5C297F8
:010A3F002294
:040A5600C2007F3823
:100A5A00AD07120A278D80A2009295C296D297C23C
:020A6A009722D1
:10095300120A567F2C7E011209B6120A561209B2E8
:10096300120A561209B2120A561209B2C2007F0CB9
:10097300120A5A7F147E001209B6C2007F01120ABE
:080983005A7F147E000209B640
:1009D600AC05AB07EB7009EC4480FFC200120A5A63
:0D09E600BB0109EC44C0FFC200120A5A22F6
:0C0ABE00AA031209D6AF02D200020A5AA5
:100A6C001205F6FF600ED200120A5A740129F9E43D
:050A7C003AFA80EC22B3
:0409B2007F647E00E0
:1009B600E4FDFCC3ED9FEC9E5015E4FBFA0BBB0077
:0F09C600010AEB64644A70F50DBD00010C80E47A
:0109D50022FF
:1007FB0002087BE493A3F8E493A34003F68001F291
:10080B0008DFF48029E493A3F85407240CC8C333FE
:10081B00C4540F4420C8834004F456800146F6DFCD
:10082B00E4800B010204081020408090091AE47E3A
:10083B00019360BCA3FF543F30E509541FFEE493C2
:10084B00A360010ECF54C025E060A840B8E493A389
:10085B00FAE493A3F8E493A3C8C582C8CAC583CAB4
:10086B00F0A3C8C582C8CAC583CADFE9DEE780BE6C
:0109520000A4
:1005F600BB010689828A83E0225002E722BBFE0203
:09060600E32289828A83E4932235
:10060F00EF8DF0A4A8F0CF8CF0A428CE8DF0A42EFF
:02061F00FE22B9
:10062100BC000BBE0029EF8DF084FFADF022E4CCBD
:10063100F875F008EF2FFFEE33FEEC33FCEE9DEC86
:10064100984005FCEE9DFE0FD5F0E9E4CEFD22EDCC
:10065100F8F5F0EE8420D21CFEADF075F008EF2F16
:10066100FFED33FD4007985006D5F0F222C398FD07
:050671000FD5F0EA22A4
:10067600C2D5EC30E709B2D5E4C39DFDE49CFCEE9F
:1006860030E715B2D5E4C39FFFE49EFE120621C3F0
:10069600E49DFDE49CFC800312062130D507C3E4EB
:0606A6009FFFE49EFE220E
:1008D600C2D5E830E70FB2D5E4C39BFBE49AFAE44D
:1008E60099F9E498F8EC30E717B2D512090C12071B
:1008F60027E4C39BFBE49AFAE499F9E498F88003A9
:1009060012072730D50DE4C39FFFE49EFEE49DFD4C
:04091600E49CFC223F
:10000E00E5652459F8E605652278563007027859D9
:10001E00E475F0011207B90205F62000EB7F2ED22F
:10002E00008018EF540F2490D43440D4FF30040BCA
:10003E00EF24BFB41A0050032461FFE56660021579
:10004E00660569E5697002056830070D7856E47536
:10005E00F0011207B9EF0206D9020AB27403D207F1
:10006E008003E4C207F5658B568A578958E4F56616
:10007E00F568F569E56660077F2012004980F57521
:10008E0067FFC201C200C202C203C205C206C20895
:10009E00120017FF700D3007057F0012005AAF696E
:1000AE00AE6822B4255FC2D5C204120017FF24D059
:1000BE00B40A00501A75F00A786630D50508B6FFF6
:1000CE000106C6A426F620D5047002D20380D924D8
:1000DE00CFB41A00EF5004C2E5D20402025AD20184
:1000EE0080C6D20080C0D20280BCD2D580BAD205E2
:1000FE0080B47F201200492002077401B5660040CB
:10010E00F112000EFF120049020082D208D20680C0
:10011E009512000EFB12000EFA12000EF94A4B70E9
:10012E0006792B7A037BFF20022EE566602A7E007D
:10013E008E827583001206AC60060EEE656770F057
:10014E00C2D5EBC0E0EAC0E0E9C0E0EE1202A1D0F9
:10015E00E0F9D0E0FAD0E0FB1205F6FF60AAEBC0A2
:10016E00E0EAC0E0E9C0E0120049D0E02401F9D095
:10017E00E03400FAD0E0FBE5670460DCD567D98097
:10018E00877BFF7A02799DD202809C79108002795A
:10019E0008C206C2088008D2D5790A8004790AC23C
:1001AE00D5E567047002F567E4FAFDFEFF12000E56
:1001BE00FC7B0820011312000EFD7B1030000A128A
:1001CE00000EFE12000EFF7B20EC3382D592D5502E
:1001DE0013C3E43000069FFFE49EFEE42001039D5E
:1001EE00FDE49CFCE4CBF8C201EC700CCFCECDCC80
:1001FE00E824F8F870F38017C3EF33FFEE33FEED0B
:10020E0033FDEC33FCEB33FB994002FB0FD8E9EBEB
:10021E00300105F8D0E0C448B201C0E00AEC4D4E02
:10022E004F78207B0070C2EAB5670040BCC0E01278
:10023E0002A3D0F0D0E0200104C4C0E0C4B201C0DB
:10024E00F0120032D0F0D5F0EB0200821207C90195
:10025E001F5301995800F04C00EC42019D4F01A52F
:0F026E004401A54901054301AB55018F46018F9E
:10027D0045018F47034B5000F42D00F82E011B2B29
:10028D0000FC2301192003342A00B4480000011397
:10029D003F3F3F00790AA2D5200314300509B9105C
:1002AD00020404B9080104A2D5200602500104205D
:1002BD0002689202B566005034C0E07F2030031909
:1002CD007F30A20272067205500F1202FAC202C2EC
:1002DD0006C205C2087F30800F300503E9C0E01269
:1002ED000049300503D0E0F9D0E0B566CC300517F4
:1002FD007F30B9100C1200497F583004077F788089
:10030D0003B908031200493002057F2D0200497F11
:10031D00202008F87F2B2006F322920280CF286E32
:10032D00756C6C2900D20112000E3001F8C20178F3
:10033D006630D50108F60200B42D5043495812001D
:10034D000E2403B405004001E49003469312003AD5
:0D035D00743A12003AD20375660402019949
:1006AC00BB010CE58229F582E5833AF583E0225003
:1006BC0006E92582F8E622BBFE06E92582F8E2224D
:0D06CC00E58229F582E5833AF583E4932267
:1006D900BB010689828A83F0225002F722BBFE0100
:0206E900F322FA
:1006EB0075F008758200EF2FFFEE33FECD33CDCCC6
:1006FB0033CCC58233C5829BED9AEC99E582984049
:10070B000CF582EE9BFEED9AFDEC99FC0FD5F0D625
:10071B00E4CEFBE4CDFAE4CCF9A88222B800C1B94F
:10072B000059BA002DEC8BF084CFCECDFCE5F0CB8D
:10073B00F97818EF2FFFEE33FEED33FDEC33FCEBC6
:10074B0033FB10D703994004EB99FB0FD8E5E4F981
:10075B00FA227818EF2FFFEE33FEED33FDEC33FC6E
:10076B00C933C910D7059BE99A4007EC9BFCE99A62
:10077B00F90FD8E0E4C9FAE4CCFB2275F010EF2FA7
:10078B00FFEE33FEED33FDCC33CCC833C810D707A7
:10079B009BEC9AE899400AED9BFDEC9AFCE899F8E2
:0E07AB000FD5F0DAE4CDFBE4CCFAE4C8F92275
:1007B900FAE6FB0808E6F925F0F618E6CA3AF62241
:1007C900D083D082F8E4937012740193700DA3A3BF
:1007D90093F8740193F5828883E4737402936860D3
:0607E900EFA3A3A380DFD3
:00000001FF
