:03000000020026D5
:0C002600787FE4F6D8FD75813002006D93
:10012B0041542B5253540D0A0041542B4349504D0B
:10013B0055583D300D0A0041542B434950535441FF
:10014B0052543D22544350222C223139322E313617
:10015B00382E342E31222C353030300D0A004154DC
:10016B002B43495053454E443D31310D0A00523417
:0A017B0033322E3234302E314500AD
:1002AF00011000C10010210000000000000000003C
:0702BF000000000000000038
:10000300C2AC1200B26012547FF5993099FDC299C7
:0C001300740129F9E43AFA80E9D2AC2229
:100282008B088A09890AC2ACAF051DEF601CAB0856
:10029200050AE50AAA097002050914F91200B25406
:0D02A2007FF5993099FDC29980DED2AC2223
:0D0185007BFF1200037FF47E017D007C00F3
:080192008F0B8E0A8D098C0809
:10019A00E4F50FF50EF50DF50CE47F0AFEFDFCAB58
:1001AA000BAA0AA909A8081200CBAB0FAA0EA90D1F
:1001BA00A80CC312011A501BE4FAF9F8E50F24013E
:1001CA00F50FEA350EF50EE9350DF50DE8350CF5A6
:0301DA000C80C6D0
:0101DD0022FF
:1002540012018A7BFF7A01792B1200037FE87E0367
:1002640012018E7A0179341201857BFF7A01794279
:0E0274001200037FE87E037D007C00020192F1
:1001DE00759850758920758DFD758BFDD28E120226
:1001EE0054D2ACD2AF12018A7BFF7A017969120028
:1001FE00037FC87E0012018E7A0179791201853053
:10020E0000E37B007A0079217D0B120282C200800E
:01021E00D40B
:0300230002021FB7
:10021F00C0E0C0D075D000C000309822C2987421C1
:10022F002510F8A6997821E6B454040510800375BB
:10023F001000E510C3940A4005751000D200D000DD
:05024F00D0D0D0E03228
:100032000201DEE493A3F8E493A34003F68001F205
:1000420008DFF48029E493A3F85407240CC8C333CF
:10005200C4540F4420C8834004F456800146F6DF9E
:10006200E4800B01020408102040809002AFE47E7D
:10007200019360BCA3FF543F30E509541FFEE49393
:10008200A360010ECF54C025E060A840B8E493A35A
:10009200FAE493A3F8E493A3C8C582C8CAC583CA85
:1000A200F0A3C8C582C8CAC583CADFE9DEE780BE3D
:0102C6000037
:1000B200BB010689828A83E0225002E722BBFE024C
:0900C200E32289828A83E493227F
:1000CB00E88FF0A4CC8BF0A42CFCE98EF0A42CFCD4
:1000DB008AF0EDA42CFCEA8EF0A4CDA8F08BF0A452
:1000EB002DCC3825F0FDE98FF0A42CCD35F0FCEBB1
:1000FB008EF0A4FEA9F0EB8FF0A4CFC5F02ECD3976
:0F010B00FEE43CFCEAA42DCE35F0FDE43CFC22E2
:10011A00EB9FF5F0EA9E42F0E99D42F0E89C45F03B
:01012A0022B2
:00000001FF
