:030000000202F306
:0C02F300787FE4F6D8FD75815002033AD4
:10015F00CFB5CDB3B3F5CABCBBAF2E2E2E004154D5
:10016F002B5253540D0A00CFB5CDB3B3F5CABCBB58
:10017F00AF2E2E2E2E0041542B4349504D55583D36
:10018F00300D0A00CFB5CDB3B3F5CABCBBAFCAA70C
:10019F00B0DC0041542B43495053544152543D223B
:1001AF00544350222C223139322E3136382E342EF0
:1001BF0031222C353030300D0A00D3A6B8C3B3C965
:1001CF00B9A6C1CB7E7E0041542B4349504D4F44BD
:1001DF00453D310D0A0041542B43495053454E4480
:1001EF003D31300D0A00BDD3CAD5CABEDDD6D02EE3
:1001FF002E2E2E00202020202020B2D9B3A1202087
:10020F002020202000CEC2B6C83A00CAAAB6C83AEB
:10021F0000D1CCCEED3A6500202020202020B7BFA2
:10022F00BCE4C4DA00D1CCCEED3A0052310030310B
:08023F0032333435363738390B
:08073E00013000C100012F0091
:0B04DE0075992E7F017E007D007C00E0
:0804E9008F1A8E198D188C1773
:1004F100E4F51EF51DF51CF51BE47F32FEFDFCAB9A
:100501001AAA19A918A817120398AB1EAA1DA91C8B
:10051100A81BC31203E7501BE4FAF9F8E51E2401F6
:10052100F51EEA351DF51DE9351CF51CE8351BF5F1
:030531001B80C666
:0105340022A4
:100661008B148A158916AB14AA15A91612037F607B
:1006710019547FF5993099FDC29974012516F51623
:0B068100E43515F5151204E180DC22C1
:10024700C2047517801205F97BFF7A01795F1206E0
:100257008C7FF47E011204E57BFF7A01796D12062B
:1002670061C2047517801205F97BFF7A017976124E
:10027700068C7FE87E031204E57BFF7A01798512FD
:100287000661C2047517801205F97BFF7A0179931D
:1002970012068C7FF47E011204E57BFF7A0179A2B6
:1002A700120661C2047517801205F97BFF7A01797E
:1002B700C912068C7FE87E031204E57BFF7A017979
:1002C700D61206617FF47E011204E57BFF7A01797D
:1002D700E51206617FF47E011204E5C204751780FA
:0C02E7001205F97BFF7A0179F502068C04
:1006B300120635759850758921758DFD758BFD75FD
:1006C3008C3C758AB0D28ED2A9120247D2AFD2AC7B
:0406D300E4F5262202
:100026008F0E8D0F8B102000030200C8D28CC204E5
:100036007517801205F97BFF7A02790312068CC2C6
:10004600047517901205F97BFF7A02791412068C53
:10005600D2047833E6F5171205F9D2047834E6F5BA
:10006600171205F9D2047835E6F5171205F9D20408
:100076007836E6F5171205F9C2047517881205F9E0
:100086007BFF7A02791A12068CD2047837E6F517C6
:100096001205F9D2047838E6F5171205F9D2047874
:1000A60039E6F5171205F9D204783AE6F51712057E
:1000B600F9C2047517981205F97BFF7A02792002B6
:1000C600015BC2047517801205F97BFF7A02792756
:1000D60012068CC2047517901205F97BFF7A027915
:1000E6001412068CD204E50E2430F5171205F9D247
:1000F60004E50F2430F5171205F9D20475172E12F0
:1001060005F9D204E5102430F5171205F9C2047575
:1001160017881205F97BFF7A02791A12068CD20427
:10012600E5112430F5171205F9D204E5122430F54D
:10013600171205F9D20475172E1205F9D204E51324
:100146002430F5171205F9C2047517981205F97BC4
:09015600FF7A02793412068C22B2
:10046F00E526606AE52175F0648485F021E5217544
:10047F00F00A84F508E52175F00A8485F009E52274
:10048F0075F00A8485F00AE52A75F0648485F02AF0
:10049F00E52A75F00A84F50BE52A75F00A8485F0D4
:1004AF000CE52B75F00A8485F00D850B11850C1268
:1004BF00850D13AB0AAD09AF08120026850B118508
:0E04CF000C12850D13AB0AAD09AF08120579AA
:0104DD0022FC
:100579008F0E8D0F8B10C2AC7BFF7A02793A12066F
:1005890061850E991204E1850F991204E11204DEC6
:100599008510991204E18511991204E185129912C5
:1005A90004E11204DE8513997F141204E3D2AC220C
:0B0733001206B31203F812046F80F8E6
:03000B000206F7F3
:1006F700C0E0C0D0758C3C758AB0052FE52FB428B3
:0807070002B200D0D0D0E032B4
:030023000205359E
:10053500C0E0C0D075D000C000C28C30982DC298E4
:1005450074312530F8A6997831E6B4520405308027
:1005550003753000E530C3940C40107832E6B431B1
:1005650007753000D2008003753000D28CD000D0E2
:04057500D0D0E032D0
:10068C008B148A158916AB14AA15A91612037FFFB1
:10069C006014D204F5171205F974012516F516E449
:0706AC003515F51580E02271
:100635007F0A7E001206D7C2A37F017E001206D76D
:10064500D2A3D2A0C2047517301205F9C2047517DA
:0C0655000C1205F9C2047517010205F92A
:1005F9002004057518F880037518FAE51754F0F505
:1006090019E517C454F0F51AAF1812000E7F057ECC
:10061900001206D7AF1912000E7F017E001206D70D
:0C062900AF1A12000E7F017E000206D7FF
:10000E00E4FEEF3392A1D2A2C2A2EF25E0FF0EBE14
:02001E0008F0E8
:0100200022BD
:1006D700E4FDFCC3ED9FEC9E5015E4FBFA0BBB0059
:0F06E700010AEB640A4A70F50DBD00010C80E4B6
:0106F60022E1
:10070F00D3EF9400EE9400400DE4FD0DBD1BFCEF04
:06071F001F70ED1E80EAD0
:0107250022B1
:0C07260015081508150815081508150819
:0107320022A4
:1005B900E4FF752502209007AE250525EE70F61299
:1005C9000726120726E4F5293090037529017525B8
:1005D90002309007AE250525EE70F6E52564016029
:0F05E9000EE52E25E0F52EE529422E0FBF08C3A3
:0105F80022E0
:1003F800C203C2907FB47E0012070FD29012072664
:10040800120726120726120726D290209058752523
:1004180002209007AF250525EF70F675250230906C
:1004280007AF250525EF70F61205B9852E2C1205A4
:10043800B9852E2D1205B9852E231205B9852E24CE
:100448001205B9852E28D290E5232524252C252DA3
:10045800F529B52811852C2A852D2B85232185245E
:0704680022852826D20322A1
:1002FF00020733E493A3F8E493A34003F68001F2DB
:10030F0008DFF48029E493A3F85407240CC8C333FF
:10031F00C4540F4420C8834004F456800146F6DFCE
:10032F00E4800B010204081020408090073EE47E19
:10033F00019360BCA3FF543F30E509541FFEE493C3
:10034F00A360010ECF54C025E060A840B8E493A38A
:10035F00FAE493A3F8E493A3C8C582C8CAC583CAB5
:10036F00F0A3C8C582C8CAC583CADFE9DEE780BE6D
:0107460000B2
:10037F00BB010689828A83E0225002E722BBFE027C
:09038F00E32289828A83E49322AF
:10039800E88FF0A4CC8BF0A42CFCE98EF0A42CFC04
:1003A8008AF0EDA42CFCEA8EF0A4CDA8F08BF0A482
:1003B8002DCC3825F0FDE98FF0A42CCD35F0FCEBE1
:1003C8008EF0A4FEA9F0EB8FF0A4CFC5F02ECD39A6
:0F03D800FEE43CFCEAA42DCE35F0FDE43CFC2213
:1003E700EB9FF5F0EA9E42F0E99D42F0E89C45F06C
:0103F70022E3
:00000001FF
