:0300000002009B60
:0C009B00787FE4F6D8FD75814E0200E28B
:10042800D3EF9400EE9400400DE4FD0DBD1BFCEFEE
:060438001F70ED1E80EABA
:01043E00229B
:0C043F0015081508150815081508150803
:01044B00228E
:10037900E4FF752502209007AE250525EE70F612DB
:10038900043F12043FE4F5293090037529017525CE
:1003990002309007AE250525EE70F6E5256401606B
:0F03A9000EE52E25E0F52EE529422E0FBF08C3E5
:0103B8002222
:1002AB00C203C2907FB47E00120428D29012043F86
:1002BB0012043F12043F12043FD290209058752530
:1002CB0002209007AF250525EF70F67525023090BB
:1002DB0007AF250525EF70F6120379852E2C120337
:1002EB0079852E2D120379852E23120379852E24E1
:1002FB00120379852E28D290E5232524252C252D34
:10030B00F529B52811852C2A852D2B8523218524AC
:07031B0022852826D20322EF
:1000030041542B43574D4F44453D310D0A00415454
:100013002B5253540D0A0041542B4349504D55580C
:100023003D300D0A0041542B43574A41503D224570
:10003300535038323636222C22303132333435366F
:10004300373839220D0A0041542B43494653520D88
:100053000A0041542B43495053544152543D2254B6
:100063004350222C223139322E3136382E342E3160
:10007300222C353030300D0A0041542B4349504D6A
:100083004F44453D310D0A0041542B4349505345DC
:080093004E440D0A0052340036
:1003E400011900C100C10120202F000000000000FD
:1003F40000000000000000000000000000000000F9
:0A04040000000000000000000000EE
:0B03220075992E7F017E007D007C009D
:08032D008F148E138D128C1148
:10033500E4F518F517F516F515E47F64FEFDFCAB3D
:1003450014AA13A912A81112024BAB18AA17A916C1
:10035500A815C312029A501BE4FAF9F8E51824010E
:10036500F518EA3517F517E93516F516E83515F5D3
:030375001580C62A
:010378002262
:1003B9008B0E8A0F8910AB0EAA0FA9101202326098
:1003C90019547FF5993099FDC29974012510F510DA
:0B03D900E4350FF50F12032580DC2235
:100127007FE87E031203297BFF7A0079031203B964
:100137007FE87E031203297BFF7A0079111203B946
:100147007FE87E031203297BFF7A00791A1203B92D
:100157007FE87E031203297BFF7A0079281203B90F
:100167007FB87E0B1203297BFF7A00794A1203B905
:100177007FF47E011203297BFF7A0079551203B9B8
:100187007FD07E071203297BFF7A00797C1203B99F
:100197007FE87E031203297BFF7A00798B1203B96C
:0B01A7007FE87E037D007C0002032D3A
:1001B200E526607BE52175F0648485F021E52175F3
:1001C200F00A84F508E52175F00A8485F009E52234
:1001D20075F00A8485F00AE52A75F0648485F02AB0
:1001E200E52A75F00A84F50BE52A75F00A8485F094
:1001F2000CE52B75F00A8485F00D7BFF7A00799867
:100202001203B9850899120325850999120325124B
:100212000322850A99120325850B99120325850C61
:0F02220099120325120322850D997F14120327C9
:0102310022AA
:10040F00759850758920758DFD758BFDD28E1201F3
:09041F00271202AB1201B280F8B1
:1000A70002040FE493A3F8E493A34003F68001F25C
:1000B70008DFF48029E493A3F85407240CC8C3335A
:1000C700C4540F4420C8834004F456800146F6DF29
:1000D700E4800B01020408102040809003E4E47ED2
:1000E700019360BCA3FF543F30E509541FFEE4931E
:1000F700A360010ECF54C025E060A840B8E493A3E5
:10010700FAE493A3F8E493A3C8C582C8CAC583CA0F
:10011700F0A3C8C582C8CAC583CADFE9DEE780BEC7
:01040E0000ED
:10023200BB010689828A83E0225002E722BBFE02CA
:09024200E32289828A83E49322FD
:10024B00E88FF0A4CC8BF0A42CFCE98EF0A42CFC52
:10025B008AF0EDA42CFCEA8EF0A4CDA8F08BF0A4D0
:10026B002DCC3825F0FDE98FF0A42CCD35F0FCEB2F
:10027B008EF0A4FEA9F0EB8FF0A4CFC5F02ECD39F4
:0F028B00FEE43CFCEAA42DCE35F0FDE43CFC2261
:10029A00EB9FF5F0EA9E42F0E99D42F0E89C45F0BA
:0102AA002231
:00000001FF
