:0300000002079163
:0C079100787FE4F6D8FD7581330207D8AC
:100A270057656C636F6D6500504D322E352020443D
:100A370065746563746F7200504D322E353A20200D
:100A47002020206D672F6D3300416C61726D3A2055
:0A0A5700202020206D672F6D330072
:100B9B00010800010F000A10000000000000000017
:050BAB000000011A002A
:100B8500E4F51BF51CF508F50EF50DF50CF50BD286
:060B9500B3C2B2D2A0229F
:100C1100758901758A8A758CD0D28CD2A9D2AF22FE
:03000B0002094E99
:0D094E00C0E0C0F0C083C082C0D075D000F2
:10095B00758A8A758CD0D2B2E4FFFE0FBF00010EF0
:10096B00EF64DE4E70F5AF0F120C217410251AF8E0
:10097B00A607051AE51AD39409400A750801751ADA
:07098B0000C28CC2AFC2B232
:0B099200D0D0D082D083D0F0D0E03273
:0700030075920375910322C1
:0E0C4100759D03E4F5BD75BC807F0A020B6E45
:100C2100EF4488F5BCE5BC30E4FB53BCEFAFBD221B
:08081D008B208A2189228D2322
:10082500E4FFF524E52314FDEFC39D5047EF04FED7
:10083500EEC39523503BAB20AA21A9228E82758356
:10084500001204E7FD8F827583001204E7FCC39D47
:10085500501C8C248E827583001204E78F82758369
:10086500001205148E82758300E5241205140E808E
:10087500BF0F80B0E523C313AB20AA21A922F582BF
:070885007583001204E7FF78
:01088C002249
:100B2500E509F524AD24E4FF120AE7850A247F0AC6
:0A0B3500120B6EAD247F01020AE7E7
:10099D00E4F509F50AFF120A987509008F0AE50AB0
:1009AD00750A00F5097F0A120B6E7F01120A98EF86
:1009BD00250AF50AE43509F509C3E50A94F8E509B0
:1009CD009402500AE50A9400E50994005006750951
:0509DD0000750A642210
:1008FA00AFB05307F0EF64F06049AFB05307F0EFC1
:10090A0064F0603FEF2430600E24F07012050AE5AF
:10091A000A700C05098008E50A150A70021509C350
:10092A00E50A94F8E50994024006750902750AF881
:10093A00D3E50A9401E50994005005E4F509F50A9E
:03094A00120B2568
:01094D002287
:10059900C2AF120B85120003120C4F120BDB120CA7
:1005A9005D7BFF7A0A7927E4FD7F04120AC37BFF8A
:1005B9007A0A792F7D01E4FF120AC37FD0120B6EEC
:1005C900120C5D7F0A120B6E7BFF7A0A793FE4FDFC
:1005D900FF120AC37BFF7A0A79507D01E4FF120AF0
:1005E900C312099D120C417F0A120B6E120C11E401
:1005F900F51AF51EF51FF508E508B401FB7B007A2D
:100609000079107D0A12081D751E008F1FAC1EADE2
:100619001FE412031EE4FBFA7980784312020F7B70
:10062900007A40799C78451201068F0E8E0D8D0C4B
:100639008C0B7FC57E207D307C3EAB0EAA0DA90CAC
:10064900A80B1201067BCD7ACC79C778C2120015A6
:100659008F0E8E0D8D0C8C0BE4FFFEFDFCAB0EAAEC
:100669000DA90CA80B1202AC5009E4F50EF50DF515
:100679000CF50BE4FFFE7D3E7C44AB0EAA0DA90CE4
:10068900A80B1202AC600D400BE4F50EF50D750CCC
:100699003E750B44AF0EAE0DAD0CAC0B1203578E6D
:1006A9001E8F1FAB1FAA1EE4FD7F061206F7AB0AB9
:1006B900AA097D017F061206F7D3E51F950AE51EF3
:1006C9009509400AC2B3C2A0D2A3C2A48008D2B37A
:1006D900D2A0C2A3D2A41208FA7F64120B6E758A43
:0E06E9008A758CD0D28CD2AFE4F508020601DF
:0A0C69000000000000000000000081
:0B0B57007FF57E00120B627FF57E0030
:0B0B6200EF4E6007EF1F70F81E80F5DB
:010B6D002265
:100B6E00AD07AC06ED1DAE0470011C4E6008120BF5
:060B7E0057120B5780EE38
:010B8400224E
:100C31007580FFC2A5D2A6C2A700D2A7E580332244
:100BEF00120C3140FBC2A5C2A6D2A78F8000C2A7AC
:010BFF0022D3
:100C0000120C3140FBD2A5C2A6D2A78F8000C2A78A
:010C100022C1
:0C0C5D007F01120BEF7F057E00020B6E82
:100AC300AE07ED7005EE24808003EE24C0FF120B09
:100AD300EF1204CEFF600C120C00740129F9E43A02
:040AE300FA80EE2285
:100B3F00AE07AC03ED7005EE24808003EE24C0FFFA
:080B4F00120BEFAF04020C00D1
:100BDB007F38120BEF7F0C120BEF7F06120BEF7FA0
:040BEB0001020BEF09
:08088D008F2C8D2D8A2E8B2F7C
:1008950078307C007D007BFF7A0C79697E007F04CF
:1008A5001204A8AB2FAA2E7C007D64AF03AE021202
:1008B5000536EF2430F5307C007D64AF03AE0212BF
:1008C5000536AA04AB057C007D0AAF03AE0212050E
:1008D50036EF2430F531AE02AF037C007D0A1205F8
:1008E50036ED2430F532E4F533FB7A007930AD2D61
:0508F500AF2C020AC354
:0806F7008F208D218A228B2344
:1006FF0078247C007D007BFF7A0C796D7E007F066D
:10070F001204A8AE22AF237C277D10120536AB054D
:10071F00AA047C037DE8AF03AE02120536EF243046
:10072F00F5247C037DE8AF03AE02120536AA04ABB5
:10073F000575252E7C007D64AF03AE02120536EFE2
:10074F002430F5267C007D64AF03AE02120536AA75
:10075F0004AB057C007D0AAF03AE02120536EF2411
:10076F0030F527AE02AF037C007D0A120536ED246B
:10077F0030F528E4F529FB7A007924AD21AF20026A
:02078F000AC39B
:0E0C4F00D2A17F0A120B62D2A27F0A020B62B0
:100BB100D2A27F0A120B62D2A17F0A120B62C2A2D9
:050BC1007F0A020B6237
:100BC600C2A27F0A120B62D2A17F0A120B62D2A2C4
:050BD6007F0A020B6222
:100B0900D2A17F0A120B6230A20BE527C394FA50D7
:0C0B190004052780F2C2A17F0A020B62D3
:100A61008F28C2A17F0A120B62E4F527E52825E051
:100A7100F52892A27F0A120B62D2A17F0A120B62A1
:100A8100C2A17F0A120B620527E527C3940840DC47
:070A9100D2A27F0A020B62F2
:1009E200C2A17F0A120B62D2A27F0A120B62E4F545
:1009F20022D2A17F0A120B62E52325E0FFA2A2E424
:100A0200334FF523C2A17F0A120B620522E522C3EE
:100A1200940840DDD2A27F0A120B62D2A17F0A1291
:040A22000B62AF2391
:010A260022AD
:100AE7008F258D26120BB17FA0120A61120B09AF59
:100AF70025120A61120B09AF26120A61120B0902AD
:020B07000BC61B
:020A98008F20AD
:100A9A00120BB17FA0120A61120B09AF20120A6170
:100AAA00120B09120BB17FA1120A61120B0912096A
:080ABA00E28F21120BC6AF21EF
:010AC2002211
:10000E000203C3E86480F8E933E83360110460F05A
:10001E00ED33EC337009E8FCE9FDEAFEEBFF220458
:10002E0060DED3EB9FEA9EE99DE8C2E78CF0C2F753
:10003E0095F0400CE8CCF8E9CDF9EACEFAEBCFFB1F
:10004E0012038E85D0F05804700320D5B3E80470E7
:10005E00075002B2D50203CD92D5EC0460F7E4CC82
:10006E00C0E0C398F8603B94186008400DD0E0FBE8
:10007E000203A5E4FBFAC9FC8028E830E406E4C9D3
:10008E00FBE4CAFCE830E305E4C9CACBFCE854073C
:10009E006010F8C3E913F9EA13FAEB13FBEC13FC47
:1000AE00D8F130F52FC3E49CFCEF9BFFEE9AFEEDEA
:1000BE0099FDD0E0FBEF4E4D4C701222DB03020394
:1000CE00CAEC2CFCEF33FFEE33FEED33FDED30E7E3
:1000DE00EB0203A5EF2BFFEE3AFEED39FDD0E0FB70
:1000EE0050130BBB00030203CDED13FDEE13FEEF19
:0800FE0013FFEC13FC0203A543
:10010600EC4D6011E8497017ED33EC3304600DE4F3
:10011600FCFFFEFD22E933E8330470F80203C31244
:10012600038E58046009E4CC248150062850090245
:1001360003CD2840030203CAC0E0EB4A7044B980ED
:1001460006D0E0FB0203B9EF4E701CBD8008EBFF42
:10015600EAFEE9FD80EBE98DF0A4FEE5F00201EF91
:10016600E9CDF9EAFEEBFFEF89F0A4FCE5F0CE89D4
:10017600F0A42EFFE435F0CD89F0A42DFEE435F091
:100186008067EF4E7005BD80D780C3EF8BF0A4ACBF
:10019600F0EE8BF0A42CFCE435F0F8EF8AF0A42CFA
:1001A600E5F038FCE433CB8DF0A42CFCE5F03BF80D
:1001B600EE8AF0A42CFCE5F038F8E433CF89F0A4FD
:1001C6002CFCE5F038CF3400CE89F0A42FFFE5F003
:1001D6003EFEE433C98DF0A42EFEE5F039CD8AF05B
:1001E600A42FFFE5F03EFEE43DFD33D0E0FB5007D3
:1001F6000BBB000F0203CDEC2CFCEF33FFEE33FEFE
:06020600ED33FD0203A52B
:10020C000203CDEC5D046005E8590470030203C3DE
:10021C0012038E580460F6EC4860F2EC7004FDFE9C
:10022C00FF22C860DB2481C85009C39860025006C5
:10023C000203CA9850CAF582E9294B4A7005AB8271
:10024C000203B975F0007C1A7880C3EF9BEE9AED2F
:10025C0099400DC3EF9BFFEE9AFEED99FDE842F03D
:10026C00DC23ACF0D0E0FFD0E0FED0E0FDAB822090
:10027C00E7101BEB60BAEC2CFCEF33FFEE33FEED1A
:10028C0033FD0203A5E803F830E705C0F075F00074
:10029C00EF2FFFEE33FEED33FD40B830E7C280AAFE
:1002AC0074F8CC6480CCC86480C8F582046043C305
:1002BC00EB9FF5F0EA9E42F0E99D42F0E89C45F098
:1002CC0060305018E5825FFFE582F42B5582FB50BD
:1002DC00210ABA001D09B90019088016E5825BFBDA
:1002EC00E582F42F5582FF50090EBE00050DBD00AE
:1002FC00010CC3EB9FF5F0EA9E42F0E99D42F0E859
:0D030C009C45F06007CC4820E701B3EC22CF
:1003190075F020800E75F010800575F0087D007E5F
:10032900007F003392D530D50312058BEC33401092
:10033900EF33FFEE33FEED33FDEC33FCD5F0ED2268
:0E034900E5F0247EA2D513CC92E7CDCEFF22A4
:10035700EDD2E7CD33EC3392D524814006E4FFFE9E
:10036700FDFC22FCE4CFCECDCC24E0501174FF80FD
:10037700EDC3CC13CCCD13CDCE13CECF13CF04709A
:07038700F030D5DE02058B0A
:10038E00E9D2E7C933E833F892D5EDD2E7CD33ECB5
:07039E0033FC5002B2D5222E
:1003A500EC30E7100FBF000C0EBE00080DBD0004B9
:1003B5000BEB6014A2D5EB13FCED92E7FD2274FF65
:1003C500FCFDFEFF22E480F8A2D574FF13FC7D80BE
:0303D500E480EFD2
:10079D00020599E493A3F8E493A34003F68001F2D4
:1007AD0008DFF48029E493A3F85407240CC8C3335D
:1007BD00C4540F4420C8834004F456800146F6DF2C
:1007CD00E4800B0102040810204080900B9BE47E16
:1007DD00019360BCA3FF543F30E509541FFEE49321
:1007ED00A360010ECF54C025E060A840B8E493A3E8
:1007FD00FAE493A3F8E493A3C8C582C8CAC583CA13
:10080D00F0A3C8C582C8CAC583CADFE9DEE780BECA
:010BB0000044
:1003D800E709F608DFFA8046E709F208DFFA803E07
:1003E80088828C83E709F0A3DFFA8032E309F608F4
:1003F800DFFA8078E309F208DFFA807088828C835C
:10040800E309F0A3DFFA806489828A83E0A3F6080F
:10041800DFFA805889828A83E0A3F208DFFA804CE9
:1004280080D280FA80C680D4806980F280338010C0
:1004380080A680EA809A80A880DA80E280CA803329
:1004480089828A83ECFAE493A3C8C582C8CCC583A1
:10045800CCF0A3C8C582C8CCC583CCDFE9DEE78071
:100468000D89828A83E493A3F608DFF9ECFAA9F0F0
:10047800EDFB2289828A83ECFAE0A3C8C582C8CC46
:10048800C583CCF0A3C8C582C8CCC583CCDFEADE5F
:10049800E880DB89828A83E493A3F208DFF980CCC1
:1004A80088F0EF60010E4E60C388F0ED2402B404BA
:1004B8000050B9F582EB2402B4040050AF23234561
:0604C8008223900428735A
:1004CE00BB010689828A83E0225002E722BBFE022C
:0904DE00E32289828A83E493225F
:1004E700BB010CE58229F582E5833AF583E02250CA
:1004F70006E92582F8E622BBFE06E92582F8E22214
:0D050700E58229F582E5833AF583E493222D
:10051400F8BB010DE58229F582E5833AF583E8F01D
:10052400225006E92582C8F622BBFE05E92582C8C9
:02053400F222B1
:10053600BC000BBE0029EF8DF084FFADF022E4CCA9
:10054600F875F008EF2FFFEE33FEEC33FCEE9DEC72
:10055600984005FCEE9DFE0FD5F0E9E4CEFD22EDB8
:10056600F8F5F0EE8420D21CFEADF075F008EF2F02
:10057600FFED33FD4007985006D5F0F222C398FDF3
:050586000FD5F0EA2290
:0E058B00C3E49FFFE49EFEE49DFDE49CFC2281
:00000001FF
