:0300000002009368
:0C009300787FE4F6D8FD75814E0200DA9B
:1003E700D3EF9400EE9400400DE4FD0DBD1BFCEF30
:0603F7001F70ED1E80EAFC
:0103FD0022DD
:0C041B0015081508150815081508150827
:0104270022B2
:10034E00E4FF752502209107AE250525EE70F61205
:10035E00041B12041BE4F529309103752901752540
:10036E0002309107AE250525EE70F6E52564016095
:0F037E000EE52E25E0F52EE529422E0FBF08C310
:01038D00224D
:10022200C203C2917FB47E001203E7D29112041B73
:1002320012041B12041B12041BD291209158752523
:1002420002209107AF250525EF70F6752502309142
:1002520007AF250525EF70F612034E852E2C1203EB
:100262004E852E2D12034E852E2312034E852E24EB
:1002720012034E852E28D291E5232524252C252DE7
:10028200F529B52811852C2A852D2B852321852436
:0702920022852826D2032279
:10011F0041542B43574D4F44453D310D0A00415437
:10012F002B5253540D0A0041542B4349504D5558EF
:10013F003D300D0A0041542B43574A41503D224553
:10014F00535038323636222C22313233343536374B
:10015F003839220D0A0041542B4349505354415210
:10016F00543D22544350222C223139322E3136380D
:10017F002E342E31222C353030300D0A0041542BC5
:10018F0043495053454E443D31300D0A005235001E
:0A019F003031323334353637383949
:10038E00011A00C100C10120202F00000000000052
:10039E00000000000000000000000000000000004F
:0D03AE000000000000000000000001190523
:0E02F40090019F93F5997F017E007D007C00B4
:080302008F148E138D128C1173
:10030A00E4F518F517F516F515E47F64FEFDFCAB68
:10031A0014AA13A912A8111201C2AB18AA17A91676
:10032A00A815C3120211501BE4FAF9F8E5182401C2
:10033A00F518EA3517F517E93516F516E83515F5FE
:03034A001580C655
:01034D00228D
:1003BC008B0E8A0F8910AB0EAA0FA9101201A9601F
:1003CC0019547FF5993099FDC29974012510F510D7
:0B03DC00E4350FF50F1202FA80DC225E
:0F03FE00759850758920758DFD758BFDD28E22F7
:100299007FE87E031202FE7BFF7A01791F1203BCFD
:1002A9007FE87E031202FE7BFF7A01792D1203BCDF
:1002B9007FE87E031202FE7BFF7A0179361203BCC6
:1002C9007FE87E031202FE7BFF7A0179441203BCA8
:1002D9007F887E131202FE7BFF7A0179651203BCC7
:0B02E9007FD07E077D007C0002030236
:10000300E52175F0648485F021E52175F00A84F516
:1000130008E52175F00A8485F009E52275F00A8464
:1000230085F00AE52A75F0648485F02AE52A75F0DF
:100033000A84F50BE52A75F00A8485F00CE52B7527
:10004300F00A8485F00D7BFF7A01798C1203BC7B67
:10005300FF7A01799C1203BCE5081202F4E5091248
:1000630002F475992E1202FAE50A1202F4E50B1254
:1000730002F4E50C1202F475992E1202FAE50D90C2
:10008300019F93F5997F147E007D007C000203029B
:0E040D001203FE12029912022212000380F85E
:10009F0002040DE493A3F8E493A34003F68001F266
:1000AF0008DFF48029E493A3F85407240CC8C33362
:1000BF00C4540F4420C8834004F456800146F6DF31
:1000CF00E4800B010204081020408090038EE47E30
:1000DF00019360BCA3FF543F30E509541FFEE49326
:1000EF00A360010ECF54C025E060A840B8E493A3ED
:1000FF00FAE493A3F8E493A3C8C582C8CAC583CA18
:10010F00F0A3C8C582C8CAC583CADFE9DEE780BECF
:0103BB000041
:1001A900BB010689828A83E0225002E722BBFE0254
:0901B900E32289828A83E4932287
:1001C200E88FF0A4CC8BF0A42CFCE98EF0A42CFCDC
:1001D2008AF0EDA42CFCEA8EF0A4CDA8F08BF0A45A
:1001E2002DCC3825F0FDE98FF0A42CCD35F0FCEBB9
:1001F2008EF0A4FEA9F0EB8FF0A4CFC5F02ECD397E
:0F020200FEE43CFCEAA42DCE35F0FDE43CFC22EA
:10021100EB9FF5F0EA9E42F0E99D42F0E89C45F043
:0102210022BA
:00000001FF
