:030000000209CB27
:0C09CB00787FE4F6D8FD7581E1020A1285
:1006EC00CFB5CDB3B3F5CABCBBAF2E0041542B4331
:1006FC00574D4F44453D320D0A00CFB5CDB3B3F540
:10070C00CABCBBAF2E2E0041542B43575341503D16
:10071C002245535038323636222C2231323334357E
:10072C0036373839222C31312C330D0A00CFB5CD68
:10073C00B3B3F5CABCBBAF2E2E2E0041542B525373
:10074C00540D0A0041542B4349504D55583D310D21
:10075C000A0041542B4349505345525645523D31A2
:10076C002C353030300D0A00202020202020202075
:10077C0020202020200041542B43495053454E4407
:10078C003D0052343030373030303031005234305C
:10079C003136303030303100523430303730303048
:1007AC0030300020202020B2D9B3A12020202020DE
:1007BC002000CEC2B6C8A3BA2000CAAAB6C8A3BA33
:1007CC002000D1CCCEEDA3BA00504DA3BA0020200E
:1007DC002020B7BFBCE4A2D920202020002020205C
:1007EC0020B7BFBCE4A2DA2020202000202020204B
:1007FC00B7BFBCE4A2DB2020202000C3BBD3D0BDFC
:07080C00D3CAD5CABEDD000E
:100CBE00C10BC10CC108C109C107C103C104C105E3
:100CCE00C106C10DC10A4100180041000A004100D1
:060CDE000001C101C1028A
:0B0A57007599317F017E007D007C005E
:060A620090002512098E30
:100A680090002912099A00000000E47F0AFEFDFCAC
:100A7800900025E0F8A3E0F9A3E0FAA3E0FB12094F
:100A88002EA804A905AA06AB07900029E0FCA3E05C
:100A9800FDA3E0FEA3E0FFD312097D4027900029C3
:100AA800E0FCA3E0FDA3E0FEA3E0FFE4FAF9F8EF21
:100AB8002401FFEA3EFEE93DFDE83CFC90002912D6
:040AC800098E80A66D
:010ACC002207
:080BD600C2087BFF7A07798257
:100BDE00900021EBF0A3EAF0A3E9F0C2ACC28C9036
:100BEE000021E0FBA3E0FAA3E0F91208FF6018541D
:100BFE007FF5993099FDC299900022E475F00112AB
:0C0C0E000918120A5A80D8D2ACD28C22ED
:080B39007B007A0079C27D08FF
:100B4100900021EBF0A3EAF0A3E9F0A3EDF0C2AC31
:100B5100C28C900024E0602C900021E0FBA3E0FA1D
:100B6100A3E0F91208FF547FF5993099FDC29990DD
:100B71000022E475F001120918900024E014F0122B
:090B81000A5A80CED2ACD28C22BB
:10081300C2957FE87E03120A5EC20F900031748096
:10082300F0120B8A7BFF7A0679EC120C1A7FF47EA6
:1008330001120A5E7BFF7A0679F8120BDE7FE87EEF
:1008430003120A5EC20F9000317480F0120B8A7B90
:10085300FF7A077906120C1A7F32120A5C7BFF7A41
:10086300077913120BDE7FD07E07120A5EC20F9048
:1008730000317480F0120B8A7BFF7A077939120CEE
:100883001A7F32120A5C7BFF7A077947120BDE7FED
:10089300E87E03120A5EC20F9000317480F0120BDF
:1008A3008A7BFF7A0679EC120C1A7F32120A5C7B80
:1008B300FF7A077950120BDE7FE87E03120A5EC2CD
:1008C3000F9000317480F0120B8A7BFF7A07790650
:1008D300120C1A7F08120A5C7BFF7A07795E120BEF
:1008E300DE7FE87E03120A5EC20F9000317480F04F
:0C08F300120B8A7BFF7A077974020C1A42
:10032400C28CC2AC20080302051D30037B120BD61D
:1003340090000BE0F599120A5A75992C120A5A1278
:100344000A57759930120A5A75990D120A5A7599F5
:100354000A120A5A759952120A5A120A57120B397A
:100364007F05120A5C300A40120BD890000BE0F5AE
:1003740099120A5A75992C120A5A120A5775993009
:10038400120A5A75990D120A5A75990A120A5A755F
:100394009952120A5A120A577B017A0079027D088F
:1003A400120B417F05120A5C200403020430120B75
:1003B400D690000CE0F599120A5A75992C120A5A33
:1003C400120A57759930120A5A75990D120A5A75FC
:1003D400990A120A5A759952120A5A759932120ACE
:1003E4005A120B397F05120A5C300A40120BD8905E
:1003F400000CE0F599120A5A75992C120A5A120A3D
:1004040057759930120A5A75990D120A5A75990A34
:10041400120A5A759952120A5A120A577B017A0023
:1004240079027D08120B417F05120A5C2005030244
:1004340004B4120BD690000DE0F599120A5A75997E
:100444002C120A5A120A57759930120A5A75990DC4
:10045400120A5A75990A120A5A759952120A5A7549
:100464009933120A5A120B397F05120A5C300A407A
:10047400120BD890000DE0F599120A5A75992C12B6
:100484000A5A120A57759930120A5A75990D120AA6
:100494005A75990A120A5A759952120A5A120A5727
:1004A4007B017A0079027D08120B417F05120A5CF8
:1004B400300666120BD890000EE0F599120A5A75B0
:1004C400992C120A5A120A57759930120A5A7599B8
:1004D4000D120A5A75990A120A5A900000E0B401E2
:1004E4000E7BFF7A07798E120BDE7F05120A5C9071
:1004F4000000E0B4020E7BFF7A077999120BDE7FCD
:1005040005120A5C900000E0B4030E7BFF7A0779C1
:0E051400A4120BDE7F05120A5CD2ACD28C2240
:100CE500120C89759850758921758DFD758BFD756B
:100CF5008C3C758AB0D28E120813D2ACD2AFD2A971
:030D0500D28C226B
:10002600200D03020323900001E064016003020136
:1000360017C20F9000317480F0120B8A7BFF7A078B
:1000460079AF120C1AC20F9000317490F0120B8A1D
:100056007BFF7A0779BE120C1AE490002DF090000F
:100066002DE0FFC394045016D20F74C22FF8E69009
:100076000031F0120B8A90002DE004F080E0C20FF0
:100086009000317488F0120B8A7BFF7A0779C612CA
:100096000C1A90002D7404F090002DE0FFC3940814
:1000A6005016D20F74C22FF8E6900031F0120B8A68
:1000B60090002DE004F080E0C20F9000317498F0BB
:1000C600120B8A7BFF7A0779CE120C1AD20F900098
:1000D600317420F0120B8AD20F9000317420F01286
:1000E6000B8A7BFF7A0779D5120C1A90002D7403C0
:1000F600F090002DE0FFC394085016D20F74C22F63
:10010600F8E6900031F0120B8A90002DE004F080A2
:10011600E0900001E0640260030201BDC20F90009E
:10012600317480F0120B8A7BFF7A0779DA120C1A87
:10013600C20F9000317490F0120B8A7BFF7A077918
:10014600BE120C1AE490002DF090002DE0FFC3942F
:10015600045016D20F74222FF8E6900031F0120BDD
:100166008A90002DE004F080E0C20F900031748880
:10017600F0120B8A7BFF7A0779C6120C1A90002DB3
:100186007404F090002DE0FFC394085016D20F744B
:10019600222FF8E6900031F0120B8A90002DE00431
:1001A600F080E0C20F9000317498F0120B8A7BFF4A
:1001B6007A0779CE120C1A900001E06403600302FC
:1001C6000270C20F9000317480F0120B8A7BFF7AA6
:1001D6000779E9120C1AC20F9000317490F0120BD5
:1001E6008A7BFF7A0779BE120C1AE490002DF090F4
:1001F600002DE0FFC394045016D20F74622FF8E668
:10020600900031F0120B8A90002DE004F080E0C2DD
:100216000F9000317488F0120B8A7BFF7A0779C63B
:10022600120C1A90002D7404F090002DE0FFC39478
:10023600085016D20F74622FF8E6900031F0120BB8
:100246008A90002DE004F080E0C20F90003174988F
:10025600F0120B8A7BFF7A0779CE120C1AD20F9016
:100266000015E0900031F0120B8A900001E0640462
:100276006003020323C20F9000317480F0120B8AD0
:100286007BFF7A0779F8120C1AC20F90003174902E
:10029600F0120B8A7BFF7A0779BE120C1AE49000E3
:1002A6002DF090002DE0FFC394045016D20F7482F7
:1002B6002FF8E6900031F0120B8A90002DE004F042
:1002C60080E0C20F9000317488F0120B8A7BFF7AAF
:1002D6000779C6120C1A90002D7404F090002DE0D8
:1002E600FFC394085016D20F74822FF8E69000319F
:1002F600F0120B8A90002DE004F080E0C20F90000F
:10030600317498F0120B8A7BFF7A0779CE120C1A99
:0D031600D20F90001EE0900031F0120B8A13
:0103230022B7
:100D2800208112900001E004F0E0D39404400374A1
:060D380002F03081FD22F3
:03000B00020ACD19
:100ACD00C0E0C0F0C083C082C0D075D000C000C0EF
:100ADD0001C002C003C004C005C006C007758C3C30
:100AED00758AB090000AE004F0E0B46421E4F0905F
:100AFD000000E004F0A3E004F0E0D394044003749C
:100B0D0001F0900000E0D3940340037401F0120053
:100B1D0026D007D006D005D004D003D002D001D006
:0C0B2D0000D0D0D082D083D0F0D0E032D5
:03002300020522B1
:10052200C0E0C083C082C0D075D000C000C005C08A
:0305320006C007F9
:10053500E4FEC28C2098030206D9C298900018E008
:100545002442F8A6997842E6FDB42B05E004F08034
:1005550005900018E4F0900018E0C39415500302CC
:1005650006D9D20DED642B60030206D47843E66408
:100575004960030206D408E6645060030206D40805
:10058500E6644460030206D4784DE66431701F7F4B
:100595000C74422FF8E6FD74222EF8A6050E0FEF17
:1005A500B414EE7E007847E690000BF0D203784D48
:1005B500E66432705508E66459703208E66457708F
:1005C5002C08E66443702608E6644770207F0C74A7
:1005D500422FF8E6FD74102EF582E43400F583ED24
:1005E500F00ED2010FEFB414E67E0080147F0C7478
:1005F500422FF8E6FD74622EF8A6050E0FEFB4142F
:10060500EE7847E690000CF0D204784DE66433703E
:100615005708E66459703208E66457702C08E6649A
:1006250043702608E6644770207F0C74422FF8E675
:10063500FD74192EF582E43400F583EDF00ED20237
:100645000FEFB414E67E0080167F0C74422FF8E697
:10065500FD74822EF8A6050E0FEFB414EE7E007819
:1006650047E690000DF0D205784DE6FDB4340978E3
:1006750047E690000EF0D206ED64357052784EE6EE
:100685006450702A08E6644D702408E66441701EC3
:100695007F0C74422FF8E6FD74022EF582E43400D7
:1006A500F583EDF00E0FEFB414E8D20A80147F0C39
:1006B50074422FF8E6FD74C22EF8A6050E0FEFB4AE
:1006C50014EE7847E690000FF0D207D2088000902C
:0606D5000018E4F0D28CD5
:1006DB00D007D006D005D000D0D0D082D083D0E0C8
:0106EB0032DC
:100C5300120CE5120D28120324200D19C20F900067
:100C6300317480F0120B8A7BFF7A087907120C1A11
:100C73007F0F120A5C209106209303309204C295E1
:060C830080D1D29580CD66
:100C1A0090002EEBF0A3EAF0A3E9F090002EE0FB9F
:100C2A00A3E0FAA3E0F91208FFFF601CD20F9000BC
:100C3A0031F0120B8A90002FE475F0011209187F27
:090C4A000A7E00120D0880D3227D
:100C89007F0A7E00120D08C2A37F017E00120D08A3
:100C9900D2A3D2A0C20F9000317430F0120B8AC2D5
:100CA9000F900031740CF0120B8AC20F900031744E
:050CB90001F0020B8AAE
:100B8A00900032200F0574F8F0800374FAF0900098
:100B9A0031E0FE54F0900033F0EEC454F0A3F0902C
:100BAA000032E0FF12000E7F057E00120D08900051
:100BBA0033E0FF12000E7F017E00120D0890003410
:0C0BCA00E0FF12000E7F017E00020D080B
:10000E00E4FEEF3392A1D2A2C2A2EF25E0FF0EEEE4
:03001E00B408EF34
:0100210022BC
:100D0800E4FDFCC3ED9FEC9E5015E4FBFA0BBB0021
:0F0D1800010AEB640A4A70F50DBD00010C80E47E
:010D270022A9
:1009D700020C53E493A3F8E493A34003F68001F2D7
:1009E70008DFF48029E493A3F85407240CC8C33321
:1009F700C4540F4420C8834004F456800146F6DFF0
:100A0700E4800B0102040810204080900CBEE47EB5
:100A1700019360BCA3FF543F30E509541FFEE493E4
:100A2700A360010ECF54C025E060A840B8E493A3AB
:100A3700FAE493A3F8E493A3C8C582C8CAC583CAD6
:100A4700F0A3C8C582C8CAC583CADFE9DEE780BE8E
:010CE400000F
:1008FF00BB010689828A83E0225002E722BBFE02F7
:09090F00E32289828A83E4932229
:10091800C5F0F8A3E028F0C5F0F8E582158270026A
:060928001583E038F02207
:10092E00E88FF0A4CC8BF0A42CFCE98EF0A42CFC68
:10093E008AF0EDA42CFCEA8EF0A4CDA8F08BF0A4E6
:10094E002DCC3825F0FDE98FF0A42CCD35F0FCEB45
:10095E008EF0A4FEA9F0EB8FF0A4CFC5F02ECD390A
:0F096E00FEE43CFCEAA42DCE35F0FDE43CFC2277
:10097D00EB9FF5F0EA9E42F0E99D42F0E89C45F0D0
:01098D002247
:0C098E00ECF0A3EDF0A3EEF0A3EFF022DC
:10099A00A8828583F0D083D0821209B11209B112DC
:1009AA0009B11209B1E473E493A3C583C5F0C58301
:1009BA00C8C582C8F0A3C583C5F0C583C8C582C8A7
:0109CA00220A
:00000001FF
