:03000000020333C5
:0C033300787FE4F6D8FD75817A02037A29
:10019300CFB5CDB3B3F5CABCBBAF2E2E2E004154A1
:1001A3002B5253540D0A00CFB5CDB3B3F5CABCBB24
:1001B300AF2E2E2E2E0041542B4349504D55583D02
:1001C300300D0A00CFB5CDB3B3F5CABCBBAFCAA7D8
:1001D300B0DC0041542B43495053544152543D2207
:1001E300544350222C223139322E3136382E342EBC
:1001F30031222C353030300D0A00D3A6B8C3B3C931
:10020300B9A6C1CB7E7E7E7E7E7E00BDD3CAD5CA13
:10021300BEDDD6D02E2E2E2E202000202020202002
:1002230020202020202020202020200020202020EB
:100233002020B2D9B3A120202020202000CEC2B696
:10024300C83A00CAAAB6C83A00504D322E353A0011
:10025300202020202020B7BFBCE4C4DA20202020A7
:1002630000D1CCCEED3A0041542B43495053454E77
:10027300443D31300D0A0052320052325957434740
:0C02830051003031323334353637383911
:08081300013000C100012F00BB
:0E06170090028593F5997F017E007D007C00A6
:080625008F1A8E198D188C1735
:10062D00E4F51EF51DF51CF51BE47F32FEFDFCAB5C
:10063D001AAA19A918A817120460AB1EAA1DA91C85
:10064D00A81BC31204AF501BE4FAF9F8E51E2401F0
:10065D00F51EEA351DF51DE9351CF51CE8351BF5B4
:03066D001B80C629
:010670002267
:0606ED007BFF7A02796A2E
:1006F3008B148A158916AB14AA15A9161204476020
:1007030019547FF5993099FDC29974012516F51690
:0B071300E43515F51512061D80DC22F0
:10028F00C2047518801206B17BFF7A0179931207A9
:10029F004A7FF47E011206217BFF7A0179A11206B3
:1002AF00F3C2047518801206B17BFF7A0179AA1286
:1002BF00074A7FE87E031206217BFF7A0179B91284
:1002CF0006F3C2047518801206B17BFF7A0179C755
:1002DF0012074A7FF47E011206217BFF7A0179D63D
:1002EF001206F3C2047518801206B17BFF7A0179EA
:1002FF00FD12074A7FF47E01120621C20475188091
:10030F001206B17BFF7A02790E12074A7FF47E0143
:10031F00120621C2047518801206B17BFF7A02798A
:04032F001E02074A59
:1007710012071E759850758921758DFD758BFD7554
:100781008C3C758AB0D28ED2A912028FD2AFD2AC74
:06079100D28CE4F52622E3
:060026008F0E8D0F8B1000
:10002C002000030200E8E531640160030200E8C22D
:10003C00047518801206B17BFF7A02792F12074AD9
:10004C00C2047518901206B17BFF7A027940120730
:10005C004AD2047835E6F5181206B1D2047836E6A1
:10006C00F5181206B1D2047837E6F5181206B1D29B
:10007C00047838E6F5181206B1C204751888120611
:10008C00B17BFF7A02794612074AD2047839E6F539
:10009C00181206B1D204783AE6F5181206B1D20459
:1000AC00783BE6F5181206B1D204783CE6F5181246
:1000BC0006B1C2047518981206B17BFF7A02794C0E
:1000CC0012074AE4F514D20474532514F8E6F51813
:1000DC001206B10514E514C3940540EAE531640237
:1000EC006003020192C2047518801206B17BFF7A7C
:1000FC0002795312074AC2047518901206B17BFF9D
:10010C007A02794012074AD204E50E2430F518120F
:10011C0006B1D204E50F2430F5181206B1D20475DD
:10012C00182E1206B1D204E5102430F5181206B1BF
:10013C00C2047518881206B17BFF7A027946120741
:10014C004AD204E5112430F5181206B1D204E51296
:10015C002430F5181206B1D20475182E1206B1D23D
:10016C0004E5132430F5181206B1C2047518981260
:10017C0006B17BFF7A02796412074AD204E5322475
:06018C0030F5181206B167
:01019200224A
:1005A800E526606AE52175F0648485F021E521750A
:1005B800F00A84F508E52175F00A8485F009E5223A
:1005C80075F00A8485F00AE52A75F0648485F02AB6
:1005D800E52A75F00A84F50BE52A75F00A8485F09A
:1005E8000CE52B75F00A8485F00D850B11850C122E
:1005F800850D13AB0AAD09AF08120026850B1185CE
:0E0608000C12850D13AB0AAD09AF08120537B1
:0106160022C1
:100537008F0E8D0F8B10C2ACC28C1206ED7BFF7A2B
:1005470002797A1206F3E50E120617E50F1206175F
:1005570075992E12061DE510120617E511120617DA
:10056700E51212061775992E12061DE513900285DE
:1005770093F5997F1412061F1206ED7BFF7A027915
:100587007D1206F3E532120617900285E412061A69
:10059700900285E493F5997F1412061FD28CD2AC92
:0105A7002231
:03000B0002079752
:10079700C0E0C0D0758C3C758AB0052FE52FB42812
:1007A7000C0531E531D394024003753101D0D0D027
:0207B700E0322E
:030023000203BF16
:0F03BF00C0E0C0D075D000C000C005C006C007A8
:1003CE00E4FFC28C309863C298745B2530F8A6990E
:1003DE00785BE6B4520405308003753000E530C317
:1003EE00940C4046785CE66432703C08E6645070CB
:1003FE002008E6644D701A08E6B441157E05745B5C
:10040E002EF8E6FD74532FF8A6050F0EBE0AEF80E8
:10041E00167E00745B2EF8E6FF74332EF8A607D214
:0C042E00000EBE0AEE8000753000D28C7B
:0D043A00D007D006D005D000D0D0D0E032E1
:1007F0001207711204C01205A830910575320180EC
:06080000F2E4F53280ED88
:10074A008B158A168917AB15AA16A917120447FF23
:10075A006014D204F5181206B174012517F517E4CE
:07076A003516F51680E022B0
:10071E007F0A7E001207B9C2A37F017E001207B9BD
:10072E00D2A3D2A0C2047518301206B1C204751835
:0C073E000C1206B1C2047518010206B1CD
:1006B1002004057519F880037519FAE51854F0F549
:1006C1001AE518C454F0F51BAF1912000E7F057E10
:1006D100001207B9AF1A12000E7F017E001207B98E
:0C06E100AF1B12000E7F017E000207B963
:10000E00E4FEEF3392A1D2A2C2A2EF25E0FF0EBE14
:02001E0008F0E8
:0100200022BD
:1007B900E4FDFCC3ED9FEC9E5015E4FBFA0BBB0076
:0F07C900010AEB640A4A70F50DBD00010C80E4D3
:0107D80022FE
:1007D900D3EF9400EE9400400DE4FD0DBD1BFCEF3A
:0607E9001F70ED1E80EA06
:0107EF0022E7
:0C08060015081508150815081508150838
:0108120022C3
:10067100E4FF752502209007AE250525EE70F612E0
:100681000806120806E4F52930900375290175253D
:1006910002309007AE250525EE70F6E52564016070
:0F06A1000EE52E25E0F52EE529422E0FBF08C3EA
:0106B0002227
:1004C000C203C2907FB47E001207D9D290120806F0
:1004D000120806120806120806D2902090587525B8
:1004E00002209007AF250525EF70F67525023090A4
:1004F00007AF250525EF70F6120671852E2C120622
:1005000071852E2D120671852E23120671852E24DB
:10051000120671852E28D290E5232524252C252D21
:10052000F529B52811852C2A852D2B852321852495
:0705300022852826D20322D8
:10033F000207F0E493A3F8E493A34003F68001F2DD
:10034F0008DFF48029E493A3F85407240CC8C333BF
:10035F00C4540F4420C8834004F456800146F6DF8E
:10036F00E4800B0102040810204080900813E47E03
:10037F00019360BCA3FF543F30E509541FFEE49383
:10038F00A360010ECF54C025E060A840B8E493A34A
:10039F00FAE493A3F8E493A3C8C582C8CAC583CA75
:1003AF00F0A3C8C582C8CAC583CADFE9DEE780BE2D
:01081B0000DC
:10044700BB010689828A83E0225002E722BBFE02B3
:09045700E32289828A83E49322E6
:10046000E88FF0A4CC8BF0A42CFCE98EF0A42CFC3B
:100470008AF0EDA42CFCEA8EF0A4CDA8F08BF0A4B9
:100480002DCC3825F0FDE98FF0A42CCD35F0FCEB18
:100490008EF0A4FEA9F0EB8FF0A4CFC5F02ECD39DD
:0F04A000FEE43CFCEAA42DCE35F0FDE43CFC224A
:1004AF00EB9FF5F0EA9E42F0E99D42F0E89C45F0A3
:0104BF00221A
:00000001FF
